:100000000C9463000C948B000C948B000C94B30341
:100010000C94B3030C94B3030C948B000C948B00DE
:100020000C948B000C948B000C948B000C948B0024
:100030000C948B000C948B000C948B000C948B0014
:100040000C9411030C948B000C9481030C945B03AF
:100050000C948B000C948B000C948B000C948B00F4
:100060000C948B000C948B000000000024002700EF
:100070002A0000000008000201000003040700003D
:1000800000000000000000000000230026002900FE
:1000900000000000250028002B00040404040404D0
:1000A0000404020202020202030303030303010227
:1000B00004081020408001020408102001020408F6
:1000C00010202D044A0611241FBECFEFD8E0DEBF5A
:1000D000CDBF11E0A0E0B1E0ECE4FDE002C005908E
:1000E0000D92A836B107D9F722E0A8E6B1E001C029
:1000F0001D92A337B207E1F710E0C2E6D0E004C0DA
:100100002197FE010E948E06C136D107C9F70E94D1
:10011000D8040C9499060C94000090E0FC01EE5871
:10012000FF4F2491FC01E255FF4F3491FC01E6564C
:10013000FF4FE491EE2309F43CC0222339F1233030
:1001400091F038F42130A9F0223001F584B58F7D8B
:1001500012C0273091F02830A1F02430B9F48091FA
:1001600080008F7D03C0809180008F778093800016
:100170000DC084B58F7784BD09C08091B0008F77A2
:1001800003C08091B0008F7D8093B000F0E0EE0F4F
:10019000FF1FE057FF4FA591B4919FB7F8946111ED
:1001A00004C08C913095382302C0EC913E2B3C93D7
:1001B0009FBF0895CF93DF9390E0FC01E255FF4F7E
:1001C0002491FC01E656FF4F8491882361F190E071
:1001D000880F991FFC01E859FF4FC591D491FC018C
:1001E000E057FF4FA591B491611109C09FB7F894F2
:1001F0008881209582238883EC912E230BC0623066
:1002000061F49FB7F8948881322F309583238883D7
:10021000EC912E2B2C939FBF06C08FB7F894E881EA
:100220002E2B28838FBFDF91CF9108953FB7F8948D
:100230008091B3019091B401A091B501B091B60144
:1002400026B5A89B05C02F3F19F00196A11DB11D31
:100250003FBFBA2FA92F982F8827820F911DA11D6C
:10026000B11DBC01CD0142E0660F771F881F991FA9
:100270004A95D1F70895CF92DF92EF92FF920F93B4
:100280001F93CF93DF936C017A018B01C0E0D0E024
:10029000CE15DF0581F0D8016D918D01D601ED916C
:1002A000FC910190F081E02DC6010995892B11F098
:1002B0002196EECF7E01C701DF91CF911F910F9163
:1002C000FF90EF90DF90CF900895FC01538D448D07
:1002D000252F30E0842F90E0821B930B541710F0F1
:1002E000CF96089501970895FC01918D828D9817FE
:1002F00061F0828DDF01A80FB11D5D968C91928D0A
:100300009F5F9F73928F90E008958FEF9FEF089506
:10031000FC01918D828D981731F0828DE80FF11DCF
:10032000858D90E008958FEF9FEF0895FC01918DEA
:10033000228D892F90E0805C9F4F821B91098F73E3
:100340009927089587EB91E00E94960121E0892B7F
:1003500009F420E0822F0895FC01848DDF01A80FAD
:10036000B11DA35ABF4F2C91848D90E001968F73DD
:100370009927848FA689B7892C93A089B1898C91FC
:10038000837080648C93938D848D981306C002884B
:10039000F389E02D80818F7D80830895EF92FF9215
:1003A0000F931F93CF93DF93EC0181E0888F9B8D98
:1003B0008C8D981305C0E889F989808185FD26C058
:1003C000F62E0B8D10E00F5F1F4F0F731127E02EDD
:1003D0008C8DE8120CC00FB607FCFACFE889F989BA
:1003E000808185FFF5CFCE010E94AC01F1CF8B8DCE
:1003F000FE01E80FF11DE35AFF4FF0829FB7F8941A
:100400000B8FEA89FB89808180620AC09FB7F894CC
:10041000EE89FF896083E889F9898081837080642F
:1004200080839FBF81E090E0DF91CF911F910F917A
:10043000FF90EF900895CF93DF93EC01888D882390
:10044000C9F0EA89FB89808185FD05C0A889B98941
:100450008C9186FD0FC00FB607FCF5CF808185FF1C
:10046000F2CFA889B9898C9185FFEDCFCE010E948A
:10047000AC01E7CFDF91CF91089580E090E0892B28
:1004800029F00E94A20181110C940000089520918E
:10049000AA013091AB012817390771F49091A80196
:1004A0008091A901981741F0E091A801F0E0E85986
:1004B000FE4F808190E008958FEF9FEF089508959B
:1004C0001F93CF93DF93DC015C968D919C915D9798
:1004D000009739F421E030E013963C932E93129765
:1004E0003BC05196ED91FC91529750962C915097AC
:1004F000322F30951FB75E964C915E97742F7270B5
:1005000041FD6095F8944081772311F0422B01C0A2
:1005100043234083EC012197F1F748E0508160FFCD
:1005200002C0522B01C053235083EC012197F1F7F5
:100530006695415099F78081772319F08323808352
:1005400002C0282B20831FBF5C968D919C915D97E4
:100550000197F1F781E090E0DF91CF911F9108952D
:100560002091AA013091AB012817390771F48091CD
:10057000A9012091A80190E0805C9F4F821B910906
:1005800060E470E00E946606089580E090E00895BF
:100590002091AA013091AB0128173907B9F4909145
:1005A000A8018091A901981789F0E091A801F0E0D5
:1005B000E859FE4F80812091A80130E02F5F3F4F26
:1005C0002F7333272093A80190E008958FEF9FEFBA
:1005D0000895089580E090E00895CF93DF93009709
:1005E00079F0FC0101900020E9F73197AF01481B39
:1005F000590BBC0187EB91E00E943B01EC0102C06A
:10060000C0E0D0E042E050E064E271E087EB91E0CE
:100610000E943B018C0F9D1FDF91CF9108950E9496
:1006200094061F920F920FB60F9211242F933F93AF
:100630008F939F93AF93BF938091AF019091B0013F
:10064000A091B101B091B2013091AE0123E0230F2E
:100650002D3720F40196A11DB11D05C026E8230FFA
:100660000296A11DB11D2093AE018093AF0190931E
:10067000B001A093B101B093B2018091B301909108
:10068000B401A091B501B091B6010196A11DB11DB3
:100690008093B3019093B401A093B501B093B601D8
:1006A000BF91AF919F918F913F912F910F900FBE6E
:1006B0000F901F9018951F920F920FB60F92112452
:1006C0002F933F934F935F936F937F938F939F935A
:1006D000AF93BF93EF93FF9387EB91E00E94AC0140
:1006E000FF91EF91BF91AF919F918F917F916F910A
:1006F0005F914F913F912F910F900FBE0F901F90E0
:1007000018951F920F920FB60F9211242F938F936B
:100710009F93EF93FF93E091C701F091C80180810F
:10072000E091CD01F091CE0182FD12C090818091C7
:10073000D0018F5F8F732091D101821751F0E0912A
:10074000D001F0E0E954FE4F958F8093D00101C0B5
:100750008081FF91EF919F918F912F910F900FBE0C
:100760000F901F9018951F920F920FB60F921124A1
:100770002F933F934F935F936F937F938F939F93A9
:10078000AF93BF93EF93FF93E091AA01F091AB0178
:10079000309709F451C0968DA685B785858591FF60
:1007A00004C09C91892329F447C09C91892309F0B6
:1007B00043C0A389B4899C918589809589238C93B2
:1007C000868997890197F1F7608D718DA685B78528
:1007D000558538E020E0CB010197F1F7822F90E0BA
:1007E00095958795282F4C91452309F02068315025
:1007F00091F7868D81FD20958091A90190E0019669
:100800008F7399273091A801381749F0A091A90159
:10081000B0E0A859BE4F2C938093A90103C0868DE8
:100820008160868F828D938D0197F1F7A389B489BA
:100830009C918589892B8C93FF91EF91BF91AF910A
:100840009F918F917F916F915F914F913F912F91E8
:100850000F900FBE0F901F9018951092BA01109232
:10086000B90188EE93E0A0E0B0E08093BB019093E3
:10087000BC01A093BD01B093BE0124E031E03093F0
:10088000B8012093B70125EC30E03093C4012093E8
:10089000C30124EC30E03093C6012093C50120EC65
:1008A00030E03093C8012093C70121EC30E0309351
:1008B000CA012093C90122EC30E03093CC0120938F
:1008C000CB0126EC30E03093CE012093CD01109285
:1008D000D0011092D1011092D2011092D301109246
:1008E0005702109256028093580290935902A09397
:1008F0005A02B0935B0286E191E090935502809397
:10090000540210926B0210926A0210926D021092C1
:100910006C0210926F0210926E021092710210928D
:100920007002609172026E7F6D7F609372026695B5
:10093000617081E0682783E00E948D0061E083E0C0
:100940000E94DA00E1EBF0E0E491E0936402EDE96B
:10095000F0E0E491F0E0EE0FFF1FE057FF4F8591CC
:100960009491909366028093650260E082E00E9419
:10097000DA008091720281FD04C061E082E00E9491
:100980008D0082E080936002E0EBF0E0E491E09380
:100990006102ECE9F0E0E491F0E0EE0FFF1FEA57AE
:1009A000FF4F859194919093630280936202089522
:1009B000789484B5826084BD84B5816084BD85B53A
:1009C000826085BD85B5816085BD80916E00816046
:1009D00080936E00109281008091810082608093EC
:1009E00081008091810081608093810080918000EE
:1009F0008160809380008091B10084608093B10019
:100A00008091B00081608093B00080917A00846012
:100A100080937A0080917A00826080937A0080913E
:100A20007A00816080937A0080917A008068809358
:100A30007A001092C100E091C701F091C80182E0F4
:100A40008083E091C301F091C4011082E091C5015F
:100A5000F091C6018FEC80831092CF01E091CB0121
:100A6000F091CC0186E08083E091C901F091CA0148
:100A7000808180618083E091C901F091CA01808109
:100A800088608083E091C901F091CA01808180680B
:100A90008083E091C901F091CA0180818F7D8083BC
:100AA00010926F0210926E0210926D0210926C0200
:100AB00010926B0210926A028DE991E0909371029C
:100AC0008093700290916002963108F058C02DEB2F
:100AD00030E030936B0220936A022BE931E03093CF
:100AE0006D0220936C022CE231E030936F02209370
:100AF0006E0240916800983058F031E09E3008F462
:100B000030E021E0822F01C0880F3A95EAF701C05A
:100B100084E0842B80936800983038F09E3040F059
:100B2000963148F020E030E008C02DE630E005C006
:100B30002BE630E002C02CE630E0309368022093D0
:100B40006702983030F481E001C0880F9A95EAF787
:100B50000EC0292F30E09E3018F42850310902C011
:100B60002E50310981E001C0880F2A95EAF7809361
:100B7000690280917002909171020197F1F7809162
:100B80006E0290916F02892B49F1E091AA01F091D8
:100B9000AB0122E0E435F20709F1309739F0A3897F
:100BA000B4899C918589809589238C938091720268
:100BB0008E7F809372021092A9011092A80184E5A1
:100BC00092E09093AB018093AA01E0916702F091CB
:100BD0006802908180916902892B808361E08DE0B9
:100BE0000E94DA0060E08DE00E948D0087E291E0D3
:100BF0000E94ED0284E592E00E94B002892B41F050
:100C000084E592E00E94C8029093AD018093AC010C
:100C10008091AC019091AD018130910539F461E092
:100C20008DE00E948D0088E591E008C0892B41F499
:100C300060E08DE00E948D008FE591E00E94ED0262
:100C40000E9416014B015C0188EEC82E83E0D82E6D
:100C5000E12CF12C0E941601DC01CB0188199909C5
:100C6000AA09BB09883E9340A105B10598F381E02C
:100C7000C81AD108E108F10828EE820E23E0921E7E
:100C8000A11CB11CC114D104E104F10419F70E94A4
:100C90003D02B0CF86E191E09093550280935402DB
:100CA0008091AA019091AB018455924071F4E0913A
:100CB0006702F09168029081809169028095892392
:100CC00080831092AB011092AA01089597FB072E22
:100CD00016F4009407D077FD09D00E947A0607FC2D
:100CE00005D03EF4909581959F4F0895709561953C
:100CF0007F4F0895AA1BBB1B51E107C0AA1FBB1F52
:100D0000A617B70710F0A61BB70B881F991F5A9597
:100D1000A9F780959095BC01CD010895EE0FFF1FB6
:100D20000590F491E02D099481E090E0F8940C9402
:100D3000990610E0C2E6D0E004C0FE010E948E06D3
:0C0D40002196C336D107C9F7F894FFCF05
:100D4C0000000000CE013B0165011B0296017401FD
:100D5C0088010000000060023B01EA025F02B00261
:100D6C00C80247020D0A00526561647920746F2035
:100D7C00636F6E6E6563740A44656675616C74208E
:100D8C0070617373776F72642069732031323334FE
:100D9C00206F7220303030004C4544204F6E004C98
:080DAC004544204F666600007B
:00000001FF
