:100000000C94C4000C94EC000C94EC000C94EC00E8
:100010000C94EC000C94EC000C94EC000C94EC00B0
:100020000C94EC000C94EC000C94EC000C94EC00A0
:100030000C94EC000C94EC000C94EC000C94EC0090
:100040000C9490020C94EC000C9400030C94DA02D3
:100050000C94EC000C94EC000C94EC000C94EC0070
:100060000C94A5050C94EC00535543434553532180
:100070002053797374656D20696E697469616C6968
:100080007A65642E2057616974696E6720666F72A5
:10009000205246494420746167732E2E2E00466913
:1000A000726D77617265207665722E2000466F75DD
:1000B0006E64206368697020504E35004469646E38
:1000C00027742066696E6420504E35337820626F45
:1000D00061726420230057656C636F6D6520746FD7
:1000E000207468652045736361706520526F6F6D81
:1000F0002052464944204761646765742076302E5B
:10010000302E3121007461672049442300466F7509
:100110006E6420616E2049534F31343434334120B2
:100120006361726420776974682000000000002415
:100130000027002A0000000000250028002B0000F6
:100140000000002300260029000404040404040421
:100150000402020202020203030303030301020476
:100160000810204080010204081020010204081039
:100170002000000008000201000003040700000046
:10018000000000000000270D11241FBECFEFD8E0B3
:10019000DEBFCDBF23E0AEE4B1E001C01D92A030D0
:1001A000B207E1F711E0A0E0B1E0EEE0F0E202C05A
:1001B00005900D92AE34B107D9F710E0C4ECD0E051
:1001C00004C02197FE010E94F60DC33CD107C9F778
:1001D0000E94110A0C9405100C940000CF92DF923B
:1001E000EF92FF920F931F93CF93DF936C017A01ED
:1001F0008B01C0E0D0E0CE15DF0581F0D8016D9114
:100200008D01D601ED91FC910190F081E02DC601A8
:100210000995892B11F02196EECF7E01C701DF9160
:10022000CF911F910F91FF90EF90DF90CF900895A5
:10023000089580E090E00895FC01538D448D252FB2
:1002400030E0842F90E0821B930B541710F0CF9670
:10025000089501970895FC01918D828D981761F0A2
:10026000828DDF01A80FB11D5D968C91928D9F5FED
:100270009F73928F90E008958FEF9FEF0895FC0198
:10028000918D828D981731F0828DE80FF11D858D4B
:1002900090E008958FEF9FEF0895FC01918D228DDE
:1002A000892F90E0805C9F4F821B91098F73992763
:1002B000089589EF91E00E944D0121E0892B09F416
:1002C00020E0822F0895FC01848DDF01A80FB11D6D
:1002D000A35ABF4F2C91848D90E001968F7399277C
:1002E000848FA689B7892C93A089B1898C9183705A
:1002F00080648C93938D848D981306C00288F38953
:10030000E02D80818F7D80830895EF92FF920F937F
:100310001F93CF93DF93EC0181E0888F9B8D8C8DB1
:10032000981305C0E889F989808185FD26C0F62EDD
:100330000B8D10E00F5F1F4F0F731127E02E8C8D78
:10034000E8120CC00FB607FCFACFE889F989808162
:1003500085FFF5CFCE010E946301F1CF8B8DFE01A9
:10036000E80FF11DE35AFF4FF0829FB7F8940B8F0F
:10037000EA89FB89808180620AC09FB7F894EE8980
:10038000FF896083E889F989808183708064808334
:100390009FBF81E090E0DF91CF911F910F91FF907F
:1003A000EF900895CF93DF93EC01888D8823C9F0F7
:1003B000EA89FB89808185FD05C0A889B9898C916E
:1003C00086FD0FC00FB607FCF5CF808185FFF2CF09
:1003D000A889B9898C9185FFEDCFCE010E94630178
:1003E000E7CFDF91CF91089580E090E0892B29F04D
:1003F0000E94590181110C94000008950E94E30F9E
:10040000CF92DF92EF92FF920F931F93CF93DF93E0
:10041000CDB7DEB7A1970FB6F894DEBF0FBECDBF44
:100420008C01CB01BA01F801118210821382128271
:100430001582148230E0AE014F5F5F4F6A010E9467
:10044000600DF60101900020E9F731977F01EC186B
:10045000FD08F80180819181009729F02281338184
:100460002E153F0508F5B7016F5F7F4F0E941D0FE6
:10047000F801009759F091838083F382E28224810E
:100480003581232B89F4FC0110820EC0808191817B
:10049000009711F00E94940EF801118210821582CB
:1004A00014821382128208C0F801F582E482B60138
:1004B000808191810E94FE0FA1960FB6F894DEBF55
:1004C0000FBECDBFDF91CF911F910F91FF90EF90A5
:1004D000DF90CF9008953FB7F89480915A019091A2
:1004E0005B01A0915C01B0915D0126B5A89B05C0A0
:1004F0002F3F19F00196A11DB11D3FBFBA2FA92FA3
:10050000982F8827820F911DA11DB11DBC01CD011F
:1005100042E0660F771F881F991F4A95D1F708950B
:100520001F920F920FB60F9211242F933F938F9328
:100530009F93AF93BF938091560190915701A091E3
:100540005801B09159013091550123E0230F2D3707
:1005500020F40196A11DB11D05C026E8230F0296C7
:10056000A11DB11D20935501809356019093570111
:10057000A0935801B093590180915A0190915B0169
:10058000A0915C01B0915D010196A11DB11D809308
:100590005A0190935B01A0935C01B0935D01BF9100
:1005A000AF919F918F913F912F910F900FBE0F9020
:1005B0001F9018951F920F920FB60F9211242F9330
:1005C0003F934F935F936F937F938F939F93AF93DB
:1005D000BF93EF93FF9389EF91E00E946301FF9136
:1005E000EF91BF91AF919F918F917F916F915F91AB
:1005F0004F913F912F910F900FBE0F901F90189524
:100600001F920F920FB60F9211242F938F939F93E7
:10061000EF93FF93E0910902F0910A028081E0914B
:100620000F02F091100282FD12C09081809112029F
:100630008F5F8F7320911302821751F0E0911202A5
:10064000F0E0E750FE4F958F8093120201C0808149
:10065000FF91EF919F918F912F910F900FBE0F906F
:100660001F901895DF92EF92FF920F931F93CF93F5
:10067000DF931F92CDB7DEB7D62EE72EF42EFC0106
:1006800081899289009761F023E02983242F30E04B
:10069000462F572FBE016F5F7F4F0E944D086AC0E3
:1006A00062E070E080E090E00E9413088091AA016F
:1006B0008111FCCF82E08F0D813208F080E291E061
:1006C0009093AA019093A9012FEF2093A801109273
:1006D000A701280F2093A601909385019091850191
:1006E00098649093850190918401913061F4109207
:1006F0008401909185019093BB009091BC0093FD83
:10070000F8CF95EC01C095EE9093BC009091AA01B2
:100710009130E1F39091A701981710F48091A7010F
:10072000E6E8F1E0AEE5B1E090E0981721F0219124
:100730002D939F5FFACF10927F0190937E018DEEF3
:1007400091E00E9460040D2D1E2DC8018F0D911D9A
:100750007C01E016F10671F061E070E080E090E06D
:100760000E9413088DEE91E00E946004F8018193CD
:100770008F01EFCF0F90DF91CF911F910F91FF90DD
:10078000EF90DF900895BF92CF92DF92EF92FF92A9
:100790000F931F93CF93DF9300D0CDB7DEB77C01CB
:1007A0006B0100E010E082E0B82EF70181899289A8
:1007B000009781F0BA8221E030E0AE014F5F5F4FD9
:1007C000BE016E5F7F4F0E944D0891E089818130AC
:1007D00041F417C0F70180810E94D30691E088237D
:1007E00081F090E0C114D10429F0065F1F4FC016BC
:1007F000D10638F06AE070E080E090E00E941308D3
:10080000D4CF892F0F900F90DF91CF911F910F912F
:10081000FF90EF90DF90CF90BF900895682F8DEEFE
:1008200091E00C94A9048FB7F8948091D9028FBFFE
:1008300008958CBD9DBD089585ED8093BC00809189
:10084000BC0084FDFCCF1092AA0108954091B6022D
:10085000262F30E0240F311D21323105DCF42091A8
:10086000AA012430C9F4FC0180E090E0861758F416
:100870003091B6022191DC01AA56BD4FA30FB11DE4
:100880002C930196F3CF8091B602680F6093B60265
:1008900080E0089581E0089582E008950895089524
:1008A0000895E0917F0180917E01E81730F4F0E037
:1008B000E25AFE4F808190E008958FEF9FEF0895F8
:1008C00090917F0180917E01981750F4E92FF0E01C
:1008D000E25AFE4F208130E09F5F90937F0102C07B
:1008E0002FEF3FEFC901089580917E0190E02091A4
:1008F0007F01821B91090895CF92DF92EF92FF92C0
:100900000F931F93CF93DF937C01CB018A0120913A
:10091000DA02222389F0EB016B01C40ED51ECC153F
:10092000DD0569F06991D701ED91FC910190F081AD
:10093000E02DC7010995F3CF642F0E942604C8015A
:10094000DF91CF911F910F91FF90EF90DF90CF90AB
:100950000895CF93DF931F92CDB7DEB769832091BF
:10096000DA022223D1F02091AC01203240F021E0C4
:1009700030E0FC013383228380E090E015C0809159
:10098000AB01E82FF0E0E552FD4F998190838F5F36
:100990008093AB018093AC0105C061E0CE0101966C
:1009A0000E94260481E090E00F90DF91CF9108959E
:1009B000833081F028F4813099F08230A1F00895DD
:1009C0008730A9F08830B9F08430D1F4809180006C
:1009D0008F7D03C0809180008F7780938000089581
:1009E00084B58F7702C084B58F7D84BD08958091D2
:1009F000B0008F7703C08091B0008F7D8093B000EE
:100A00000895009769F0FC0101900020E9F7319703
:100A1000AF01481B590BBC0189EF91E00C94EE002B
:100A200080E090E008958F929F92AF92BF920F93D3
:100A30001F93CF93DF93CDB7DEB7A1970FB6F8948E
:100A4000DEBF0FBECDBF19A2423008F44AE08E01CE
:100A50000F5D1F4F842E912CA12CB12CA501940168
:100A60000E94D40DE62FB901CA0101501109EA30E4
:100A700014F4E05D01C0E95CD801EC93232B242B36
:100A8000252B61F7C8010E940105A1960FB6F894C5
:100A9000DEBF0FBECDBFDF91CF911F910F91BF90F1
:100AA000AF909F908F900895CF92DF92EF92FF9238
:100AB000CF93DF936B017C016DE289EF91E00E949F
:100AC0008501EC0166277727CB016C197D098E091A
:100AD0009F094AE00E9413058C0F9D1FDF91CF9163
:100AE000FF90EF90DF90CF9008950F931F93CF93D7
:100AF000DF938C01C0E0D0E0F801EC0FFD1F6491A2
:100B0000662341F089EF91E00E948501892B11F065
:100B10002196F2CFCE01DF91CF911F910F910895D1
:100B2000CF93DF93FC01448155816081718189EF0E
:100B300091E00E94EE00EC0182E491E00E94010548
:100B40008C0F9D1FDF91CF9108951F920F920FB6CA
:100B50000F9211242F933F934F935F936F937F9343
:100B60008F939F93AF93BF93EF93FF938091B900BF
:100B7000887F803609F49CC068F5883209F45BC030
:100B800090F4803109F454C038F4882309F4F6C095
:100B9000883009F44DC0F6C0883109F44CC0803269
:100BA00009F45DC0EFC0803409F468C048F48033B4
:100BB00009F455C0883309F0E5C08093A801D8C076
:100BC000803509F44FC0883509F45DC0883409F0D8
:100BD000D9C0D6C0883909F4C7C0A8F4883709F449
:100BE00067C038F4883609F463C0803709F460C000
:100BF000C9C0883809F4B8C0803909F45FC08038AA
:100C000009F0C0C05BC0803B09F486C038F4803A6C
:100C100009F466C0883A09F47FC0B4C0803C09F486
:100C2000A7C0883C09F4A4C0883B09F48AC0AAC0C4
:100C30008091850110C09091A7018091A60198171D
:100C400070F5E091A70181E08E0F8093A701F0E09D
:100C5000EA57FE4F80818093BB0085EC86C080936D
:100C6000A8018EC0E091A70181E08E0F8093A701BB
:100C70008091BB00F0E0EA57FE4F80839091A7017E
:100C80008091A6016EC0E091A70181E08E0F809354
:100C9000A7018091BB00F0E0EA57FE4F808380916E
:100CA000A90181116DC081E08093840184EA61C053
:100CB00083E08093AA011092D802CFCF8091D8020E
:100CC000803208F051C0E091D80281E08E0F80930D
:100CD000D8028091BB00F0E0E854FD4F8083BDCF87
:100CE00085EC8093BC001092AA018091D8028032DA
:100CF00030F4E091D802F0E0E854FD4F10826091AA
:100D0000D80270E0E0918201F091830188EB92E0DB
:100D100009951092D80236C084E08093AA011092FF
:100D2000B7021092B602E0918001F091810109951D
:100D30008091B602811105C081E08093B6021092C5
:100D40009602E091B70281E08E0F8093B702F0E047
:100D5000EA56FD4F80818093BB009091B70280914D
:100D6000B602981708F479CF85E88093BC000AC0D2
:100D700085EC8093BC001092AA0104C01092A801D7
:100D80000E941C04FF91EF91BF91AF919F918F91B1
:100D90007F916F915F914F913F912F910F900FBE77
:100DA0000F901F901895CF93DF93282F30E0F90113
:100DB000EF58FE4F8491F901E35AFE4FD491F901A7
:100DC000E75BFE4FC491CC2391F081110E94D804BF
:100DD000EC2FF0E0EE0FFF1FE15CFE4FA591B49108
:100DE000EC91ED2381E090E021F480E002C080E00E
:100DF00090E0DF91CF9108951F93CF93DF93282F39
:100E000030E0F901EF58FE4F8491F901E35AFE4FAB
:100E1000D491F901E75BFE4FC491CC23C1F0162FAA
:100E200081110E94D804EC2FF0E0EE0FFF1FEB5C65
:100E3000FE4FA591B4919FB7F894111104C08C9105
:100E4000D095D82302C0EC91DE2BDC939FBFDF91BD
:100E5000CF911F910895CF92DF92EF92FF920F935F
:100E60001F93CF93DF93EC0188819981892B09F03F
:100E70008BC088859985892BE9F420E030E000E07B
:100E800070E0E7E0F0E0AB01022E02C05595479517
:100E90000A94E2F741705527CF01821B930B01C0E2
:100EA000440F8A95EAF7042B2F5F3F4F2830310516
:100EB00051F701C0062F10E087E0E82EF12CCC247A
:100EC000C394D12C110F8A8581111AC0B6010E2C42
:100ED00001C0660F0A94EAF760238D850E94FC0624
:100EE00061E08C850E94FC068E858F3F29F00E9470
:100EF000D306892B09F04EC060E08C850E94FC0669
:100F00008A858430C9F461E08C850E94FC06B601B4
:100F10000E2C01C0660F0A94EAF760238D850E94AB
:100F2000FC0660E08C850E94FC068E858F3F21F0D8
:100F30000E94D306892B81F581E0E81AF10810F6AA
:100F400088859985892BF1F420E030E080E0A12F9D
:100F5000B0E0E7E0F0E0AD01022E02C05595479504
:100F60000A94E2F741705527BF01621B730B01C061
:100F7000440F6A95EAF7842B2F5F3F4F28303105E5
:100F800051F70CC0812F0AC06EBD0DB407FEFDCF16
:100F90008EB504C01160B0CF1160CECFDF91CF917C
:100FA0001F910F91FF90EF90DF90CF900895CF9316
:100FB000DF9390E0FC01E35AFE4F2491FC01E75BD4
:100FC000FE4F8491882361F190E0880F991FFC0106
:100FD000E55DFE4FC591D491FC01EB5CFE4FA59100
:100FE000B491611109C09FB7F8948881209582233C
:100FF0008883EC912E230BC0623061F49FB7F89484
:101000008881322F309583238883EC912E2B2C936B
:101010009FBF06C08FB7F894E8812E2B28838FBF1F
:10102000DF91CF9108958F929F92AF92BF92CF920E
:10103000DF92EF92FF926B017C010E946B024B01E9
:101040005C01C114D104E104F104F1F00E946B02CF
:10105000DC01CB0188199909AA09BB09883E934094
:10106000A105B10570F321E0C21AD108E108F10829
:1010700088EE880E83E0981EA11CB11CC114D10417
:10108000E104F10419F7DDCFFF90EF90DF90CF90EE
:10109000BF90AF909F908F900895CF92DF92EF9284
:1010A000FF920F931F93CF93DF93EC018B016A01A3
:1010B000790188819981892B31F0EA81FB818081D6
:1010C00091810E94190460E08B850E94FC06F80162
:1010D0006081CE010E942B076AE070E080E090E022
:1010E0000E9413088601EC0CFD1CE016F10641F08D
:1010F0006FEFCE010E942B07F80181938F01F5CF8E
:1011000061E08B850E94FC0681E0DF91CF911F9109
:101110000F91FF90EF90DF90CF9008952F923F9224
:101120004F925F926F927F928F929F92AF92BF92F7
:10113000CF92DF92EF92FF920F931F93CF93DF93A3
:10114000CDB7DEB727970FB6F894DEBF0FBECDBF81
:101150007C014A012DB63EB6DC015196CD90DC9063
:10116000529766246394660EC114D10409F472C0C8
:101170004DB65EB670E0685F7F4FEDB7FEB7E61B19
:10118000F70B0FB6F894FEBF0FBEEDBF0DB71EB73D
:101190000F5F1F4F81E08183D80111961C92119738
:1011A00012961C9212978FEF13968C9313971496A6
:1011B0006C921497862D819515968C93159784EDD6
:1011C00016968C934DB75EB7485F5F4FFA0163ED9B
:1011D000712C9301215031098E2F841B90E08217CE
:1011E00093073CF4DC01A355BE4F8C918193680FAB
:1011F000F3CF609560831182B8E06B0E711CF6012D
:1012000080819181892B39F00280F381E02D8081EA
:1012100091810E94190460E0D6011B968C910E9476
:10122000FC065801F50161915F01C6010E942B0780
:10123000C501801B910B86159705A0F361E0D601CF
:101240001B968C910E94FC060FB6F8945EBE0FBEF2
:101250004DBE90C062E070E080E090E00E94130814
:1012600081E08093DA0284E28093FB021092AB016A
:101270001092AC0180E00E940E0480E00E940E04F7
:101280008FEF0E940E04862D0E940E04862D8195FC
:101290000E940E0484ED0E940E04C12C83EDD82E12
:1012A000712CB1E06B1A71080C2D10E006151705B2
:1012B0005CF403551E4FF80180810E940E04D80192
:1012C0008C91D80EC394F0CF8D2D80950E940E0482
:1012D00080E00E940E049091AC01913208F044C06D
:1012E0008091AA018111FCCF82E08093AA0181E064
:1012F0008093A9018FEF8093A8011092A70190938A
:10130000A601EBEDF2E0A6E8B1E080E0981721F04D
:1013100021912D938F5FFACF1092850180918501E5
:1013200088648093850180918401813061F41092FA
:101330008401809185018093BB008091BC0083FD76
:10134000F8CF85EC01C085EE8093BC008091AA01A6
:101350008230E1F38091A8018F3F31F08091A801A4
:10136000803211F08091A8011092AB011092AC0173
:101370001092DA02B401C7010E94C303182F811131
:1013800002C010E02FC0F70181899289009769F0AF
:1013900023E02F8326E030E0AE014F5F5F4FBE01B8
:1013A000695F7F4F0E944D0807C046E0BE016F5F36
:1013B0007F4FC7010E94320346E050E066E071E0D3
:1013C000CE0101960E94E80F892BD9F6D7015196DC
:1013D0008D919C915297892B29F0B401C7010E94ED
:1013E000C303182F812F0FB6F8943EBE0FBE2DBE3B
:1013F00027960FB6F894DEBF0FBECDBFDF91CF9119
:101400001F910F91FF90EF90DF90CF90BF90AF9022
:101410009F908F907F906F905F904F903F902F9014
:101420000895CF93DF93CDB7DEB729970FB6F89421
:10143000DEBF0FBECDBF789484B5826084BD84B515
:10144000816084BD85B5826085BD85B5816085BDBF
:1014500080916E00816080936E0010928100809177
:1014600081008260809381008091810081608093FF
:101470008100809180008160809380008091B10024
:1014800084608093B1008091B00081608093B0004F
:1014900080917A00846080937A0080917A008260E3
:1014A00080937A0080917A00816080937A008091A5
:1014B0007A00806880937A001092C100E09109025E
:1014C000F0910A0282E08083E0910502F091060229
:1014D0001082E0910702F091080280E1808310926F
:1014E0001102E0910D02F0910E0286E08083E091FE
:1014F0000B02F0910C02808180618083E0910B02ED
:10150000F0910C02808188608083E0910B02F09161
:101510000C02808180688083E0910B02F0910C02C4
:1015200080818F7D808386ED90E00E94750582E446
:1015300091E00E940105B2E12B2EB1E03B2E8FE439
:1015400091E099878887412C512C3201DE01119658
:101550007D0183E190E00E94FC0D6C01F10180802F
:10156000F4E02F0E311CEFEFDC01EC93FFEF11964E
:10157000FC9380E190E00E94FC0D8C01DC011B9645
:101580008C921B97EDE01C96EC931C97FCE01E964A
:10159000FC931E978BE01D968C9380E492E4AFE061
:1015A000B0E0F80184839583A683B7831186108603
:1015B0001286178682E090E00E94FC0D21E7DC0194
:1015C0002C9311961C92F8019383828311821082CE
:1015D000D60152961C930E935197E885F985D182D6
:1015E000C0820115110509F475C061E0882D0E94C3
:1015F000D70761E0D8011B968C910E94FC06F80188
:1016000080819181892B09F434C08FB6F894809140
:101610004E01811127C0E3E5F1E08491E7E6F1E0B6
:101620009491E82FF0E0EE0FFF1FE55DFE4FA591CE
:10163000B4918C91982321F461E08AE00E94FC0629
:1016400061E08AE00E94D7078CB580618CBD8CB5C3
:1016500080648CBD61E08DE00E94D70761E08BE083
:101660000E94D70780914E018F5F80934E018FBEFD
:1016700023C061E084850E94D707F80182858B7FB3
:1016800019F460E0848502C061E084850E94FC0654
:10169000F80185858F3F49F061E00E94D70761E03E
:1016A000D8011D968C910E94FC06F80186858F3F1B
:1016B00019F060E00E94D707E1E0D8011F96EC9393
:1016C000F2E0F093AD0144E650E061E0C6010E9413
:1016D0008E0850C010927F0110927E011092AB01D3
:1016E0001092AC011092AA0181E08093A90110929E
:1016F000840161E082E10E94FC0661E083E10E94D6
:10170000FC068091B9008E7F8093B9008091B9006A
:101710008D7F8093B90088E48093B80085E480933E
:10172000BC00AEE4B4E0B0938101A0938001EFE48B
:10173000F4E0F0938301E093820161E0D601119619
:101740008C910E94FC0660E0F60181810E94FC06FB
:1017500060E971E080E090E00E94130861E0D6014A
:1017600011968C910E94FC066AE070E080E090E0A7
:101770000E941308E885F98500811181F2E0F09359
:10178000AD0144E650E061E0C8010E948E0881117D
:1017900004C0812C912C540129C04CE06DEA71E009
:1017A000C8010E94320346E050E060E071E08DEA3B
:1017B00091E00E94E80F892B61F78091B40190912C
:1017C000B501982789279827A0E0B0E0BA2FA92F64
:1017D000982F88272091B601822BBA2FA92F982FF6
:1017E00088272091B7014C015D01822A8CEB90E0A3
:1017F0000E9475054AE0C301B2010E94130582E40C
:1018000091E00E9401058FE0881687E29806A10406
:10181000B10409F4AFCF8DEA90E00E9475054B2D1D
:1018200055276627772720E1C7010E940002C701DC
:101830000E94900589819A810E94940E8EE990E021
:101840000E9475054A2D50E060E070E02AE0C70173
:101850000E9400024D815E8169817A8189EF91E069
:101860000E94EE0089819A810E94940E6EE289EFB7
:1018700091E00E948501492D50E060E070E02AE08F
:10188000C7010E940002C7010E94900589819A81C8
:101890000E94940EA885B9850D911D91B987A887DE
:1018A00084E18093AD01B1E0B093AE018093AF01CC
:1018B000B093B00144E650E064E0C8010E948E0895
:1018C000882331F048E06DEA71E0C8010E943203DC
:1018D00082E38093AD01E5E0E093AE01FFEFF0938A
:1018E000AF0181E08093B0018093B10144E650E004
:1018F00065E0C8010E948E089FEF491A590A690ADB
:10190000790AA3E04A1651046104710409F021CE5A
:1019100088E690E00E94750582E491E00E9401054E
:1019200057E0752E6AE4662E4FE4C42E41E0D42EB3
:10193000812C912C5401F701872D11928A95E9F79A
:1019400085E491E00E9401054AE0C501B4010E94CE
:10195000130582E491E00E940105D6010D911D91CD
:101960006D016092AD01B1E0B093AE011092AF0194
:1019700040E050E063E0C8010E948E08882309F42B
:1019800062C0F80181899289892B89F044E16DEA6E
:1019900071E0C8010E9432038091B401813009F0E6
:1019A00052C01091B901AAEBB1E0F70108C060E0A4
:1019B00070E0C8010E94C3038111E8CF44C08E2F9C
:1019C0008E19811718F48D918193F9CF8DE091E0F4
:1019D0000E9475051430B9F589819A819827892765
:1019E0009827A0E0B0E0BA2FA92F982F88272B8145
:1019F000822BBA2FA92F982F88272C811C012D010B
:101A0000222A85E091E00E9475054AE0C201B101F9
:101A10000E94130582E491E00E94010568EE73E0E4
:101A200080E090E00E941308FFEF8F1A9F0AAF0A30
:101A3000BF0A83E088169104A104B10409F07BCFAA
:101A40000E94F40171CF212C312C2101DACFEDEE6F
:101A5000F1E01382128288EE93E0A0E0B0E084838C
:101A60009583A683B78322E231E031832083E9EFB7
:101A7000F1E01382128284839583A683B78384E383
:101A800091E09183808385EC90E09587848784EC56
:101A900090E09787868780EC90E0918B808B81EC3B
:101AA00090E0938B828B82EC90E0958B848B86EC1C
:101AB00090E0978B868B118E128E138E148E089564
:101AC0002532310520F4223010F00C946B0DFA0110
:101AD0001082CA010895BB27FA01A62F621771056B
:101AE00081059105330B30FB66F0AA27660F771F3F
:101AF000881F991FAA1FA21710F0A21B63953850C8
:101B0000A9F7A05DAA3308F0A95DA19336F7B1113A
:101B1000B1931082CA010C948D0DDC01FC01672F7A
:101B200071917723E1F7329704C07C916D937083B4
:101B30006291AE17BF07C8F308952F923F924F925C
:101B40005F926F927F928F929F92AF92BF92CF924D
:101B5000DF92EF92FF920F931F93CF93DF93CDB756
:101B6000DEB7CA1BDB0B0FB6F894DEBF0FBECDBFCE
:101B700009942A88398848885F846E847D848C849F
:101B80009B84AA84B984C884DF80EE80FD800C81A8
:101B90001B81AA81B981CE0FD11D0FB6F894DEBF8B
:101BA0000FBECDBFED010895A1E21A2EAA1BBB1BEB
:101BB000FD010DC0AA1FBB1FEE1FFF1FA217B30719
:101BC000E407F50720F0A21BB30BE40BF50B661F2F
:101BD000771F881F991F1A9469F7609570958095F3
:101BE00090959B01AC01BD01CF010895EE0FFF1F41
:101BF0000590F491E02D09940F931F93CF93DF93F9
:101C00008230910510F482E090E0E091FE02F091C4
:101C1000FF0220E030E0A0E0B0E0309719F1408111
:101C200051810281138148175907C8F0841795071D
:101C300069F4109731F012960C93129713961C9337
:101C400027C00093FE021093FF0222C02115310528
:101C500019F04217530718F49A01BD01EF01DF0193
:101C6000F801DBCF21153105F9F0281B390B2430A1
:101C7000310580F48A819B816115710521F0FB019A
:101C80009383828304C09093FF028093FE02FE013F
:101C9000329644C0FE01E20FF31F819391932250CC
:101CA0003109398328833AC02091FC023091FD022A
:101CB000232B41F420910E0130910F013093FD024E
:101CC0002093FC0220910C0130910D01211531056A
:101CD00041F42DB73EB74091100150911101241BE2
:101CE000350BE091FC02F091FD02E217F307A0F43E
:101CF0002E1B3F0B2817390778F0AC014E5F5F4F62
:101D00002417350748F04E0F5F1F5093FD02409394
:101D1000FC028193919302C0E0E0F0E0CF01DF91FB
:101D2000CF911F910F910895CF93DF93009709F4FE
:101D300081C0FC01329713821282A091FE02B09101
:101D4000FF02109781F420813181820F931F20912F
:101D5000FC023091FD022817390751F5F093FD027E
:101D6000E093FC0267C0ED0120E030E0CE17DF0712
:101D700040F44A815B819E0141155105F1F0EA0171
:101D8000F5CFD383C28340815181840F951FC8173B
:101D9000D90759F488819981840F951F0296918300
:101DA00080838A819B81938382832115310529F465
:101DB000F093FF02E093FE023DC0E901FB83EA835A
:101DC00049915991C40FD51FEC17FD0761F480812B
:101DD0009181840F951F0296E901998388838281FE
:101DE00093819B838A83E0E0F0E012968D919C9131
:101DF0001397009719F0FD01DC01F7CF8D919C91AD
:101E000011979D012E5F3F4F820F931F2091FC027F
:101E10003091FD022817390769F4309729F41092A0
:101E2000FF021092FE0202C013821282B093FD02E2
:101E3000A093FC02DF91CF910895A0E0B0E0E3E22F
:101E4000FFE00C94A10DEC01009721F4CB010E945E
:101E5000FC0DB4C0FC01E60FF71F9C0122503109B4
:101E6000E217F30708F4A8C0D9010D911C9111974E
:101E700006171707B0F00530110508F49BC0C8011C
:101E800004978617970708F495C002501109061B9E
:101E9000170B019311936D937C93CF010E94940EC5
:101EA00089C05B01A01AB10A4C01800E911EA0915D
:101EB000FE02B091FF02612C712CE12CF12C1097E5
:101EC00009F446C08D919C911197A815B905B1F5FB
:101ED0006C0142E0C40ED11CCA14DB0478F14C0141
:101EE0008A189B08640142E0C40ED11C1296BC9073
:101EF00012971396AC91B5E0CB16D10440F0B282A4
:101F0000A38391828082D9016D937C9309C00E5F77
:101F10001F4F800F911FF90191838083EB2DFA2FC2
:101F2000E114F10431F0D7011396FC93EE9312976C
:101F300041C0F093FF02E093FE023CC068167906B0
:101F400008F43C017D0112960D90BC91A02DB7CFF5
:101F50008091FC029091FD0288169906E1F46616C4
:101F60007706C8F480910C0190910D01009741F41F
:101F70008DB79EB74091100150911101841B950BB4
:101F8000E817F907C8F4F093FD02E093FC02F901A9
:101F9000718360830FC0CB010E94FC0D7C01009710
:101FA00059F0A801BE010E94F50FCE010E94940EC7
:101FB000C70104C0CE0102C080E090E0CDB7DEB71B
:101FC000EEE00C94BD0D81E090E0F8940C940510C7
:101FD000FB01DC0104C08D910190801921F4415076
:101FE0005040C8F7881B990B0895FB01DC0102C023
:101FF00001900D9241505040D8F70895FB01DC014B
:0E20000001900D920020E1F70895F894FFCFB3
:10200E000000FF06FAD50000FF00FF0000000003ED
:10201E002000050000000600000007000000000080
:10202E000000A9047C0419015004740460045104D6
:10203E00000000008501EE001C01D2014D012B01B4
:0E204E003F010D0A0052454144455220230037
:00000001FF
