:100000000C94AF000C94D7000C94D7000C94D7003C
:100010000C94D7000C94D7000C94D7000C94D70004
:100020000C94D7000C94D7000C94D7000C94D700F4
:100030000C94D7000C94D7000C94D7000C94D700E4
:100040000C94B2090C94D7000C947C020C945602C8
:100050000C94D7000C94D7000C94D7000C94D700C4
:100060000C94B6070C94D700535543434553532182
:100070002053797374656D20696E697469616C6968
:100080007A65642E2057616974696E6720666F72A5
:10009000205246494420746167732E2E2E00466913
:1000A000726D77617265207665722E2000446964F6
:1000B0006E27742066696E6420504E353378206256
:1000C0006F6172642023002000300030780074617A
:1000D00067204944230020205549442056616C750F
:1000E000653A2000466F756E6420616E2049534F5B
:1000F0003134343433412063617264207769746829
:10010000200000000000240027002A00000000005A
:10011000250028002B0000000000230026002900F5
:10012000040404040404040402020202020203039D
:1001300003030303010204081020408001020408A5
:100140001020010204081020000000080002010035
:10015000000304070000000000000000640D1124EB
:100160001FBECFEFD8E0DEBFCDBF23E0A4E9B1E0F2
:1001700001C01D92AA34B207E1F711E0A0E0B1E09E
:10018000E8E8F0E202C005900D92A439B107D9F772
:1001900010E0CFEAD0E004C02197FE010E94330EA8
:1001A000CE3AD107C9F70E94FC090C9442100C9476
:1001B0000000CF92DF92EF92FF920F931F93CF93A5
:1001C000DF936C017A018B01C0E0D0E0CE15DF0532
:1001D00081F0D8016D918D01D601ED91FC910190D6
:1001E000F081E02DC6010995892B11F02196EECF03
:1001F0007E01C701DF91CF911F910F91FF90EF908A
:10020000DF90CF900895089580E090E00895FC017C
:10021000538D448D252F30E0842F90E0821B930B6B
:10022000541710F0CF96089501970895FC01918D11
:10023000828D981761F0828DDF01A80FB11D5D9648
:100240008C91928D9F5F9F73928F90E008958FEFB6
:100250009FEF0895FC01918D828D981731F0828D6A
:10026000E80FF11D858D90E008958FEF9FEF0895C1
:10027000FC01918D228D892F90E0805C9F4F821B25
:1002800091098F739927089585E392E00E943801C0
:1002900021E0892B09F420E0822F0895FC01848D50
:1002A000DF01A80FB11DA35ABF4F2C91848D90E0A0
:1002B00001968F739927848FA689B7892C93A0897B
:1002C000B1898C91837080648C93938D848D981305
:1002D00006C00288F389E02D80818F7D8083089598
:1002E000EF92FF920F931F93CF93DF93EC0181E086
:1002F000888F9B8D8C8D981305C0E889F989808142
:1003000085FD26C0F62E0B8D10E00F5F1F4F0F737B
:100310001127E02E8C8DE8120CC00FB607FCFACF27
:10032000E889F989808185FFF5CFCE010E944E01D1
:10033000F1CF8B8DFE01E80FF11DE35AFF4FF082E4
:100340009FB7F8940B8FEA89FB89808180620AC08D
:100350009FB7F894EE89FF896083E889F9898081E5
:100360008370806480839FBF81E090E0DF91CF91B4
:100370001F910F91FF90EF900895CF93DF93EC01C1
:10038000888D8823C9F0EA89FB89808185FD05C0B5
:10039000A889B9898C9186FD0FC00FB607FCF5CFEF
:1003A000808185FFF2CFA889B9898C9185FFEDCF37
:1003B000CE010E944E01E7CFDF91CF91089580E0FA
:1003C00090E0892B29F00E94440181110C940000D7
:1003D00008950E942010CF92DF92EF92FF920F9328
:1003E0001F93CF93DF93CDB7DEB7A1970FB6F894E5
:1003F000DEBF0FBECDBF8C01CB01BA01F801118267
:100400001082138212821582148230E0AE014F5F97
:100410005F4F6A010E949D0DF60101900020E9F7EF
:1004200031977F01EC18FD08F801808191810097D8
:1004300029F0228133812E153F0508F5B7016F5F42
:100440007F4F0E945A0FF801009759F091838083E3
:10045000F382E28224813581232B89F4FC0110820E
:100460000EC080819181009711F00E94D10EF80199
:1004700011821082158214821382128208C0F80140
:10048000F582E482B601808191810E943B10A196A1
:100490000FB6F894DEBF0FBECDBFDF91CF911F9195
:1004A0000F91FF90EF90DF90CF9008951F920F92E1
:1004B0000FB60F9211242F933F934F935F936F9337
:1004C0007F938F939F93AF93BF93EF93FF9385E3B6
:1004D00092E00E944E01FF91EF91BF91AF919F91E9
:1004E0008F917F916F915F914F913F912F910F90DD
:1004F0000FBE0F901F9018951F920F920FB60F927C
:1005000011242F938F939F93EF93FF93E0914502D4
:10051000F09146028081E0914B02F0914C0282FD05
:1005200012C0908180914E028F5F8F7320914F0295
:10053000821751F0E0914E02F0E0EB5CFD4F958F99
:1005400080934E0201C08081FF91EF919F918F9126
:100550002F910F900FBE0F901F901895DF92EF9282
:10056000FF920F931F93CF93DF931F92CDB7DEB708
:10057000D62EE72EF42EFC0181899289009761F036
:1005800023E02983242F30E0462F572FBE016F5FD1
:100590007F4F0E94B8046AC062E070E080E090E0A3
:1005A0000E9478098091C5018111FCCF82E08F0DF6
:1005B000813208F080E291E09093C5019093C401EC
:1005C0002FEF2093C3011092C201280F2093C10185
:1005D0009093A0019091A00198649093A0019091B4
:1005E0009F01913061F410929F019091A00190932E
:1005F000BB009091BC0093FDF8CF95EC01C095EE47
:100600009093BC009091C5019130E1F39091C201AB
:10061000981710F48091C201E1EAF1E0A4EDB2E094
:1006200090E0981721F021912D939F5FFACF1092BF
:10063000F5029093F40289E292E00E94F0060D2DFB
:100640001E2DC8018F0D911D7C01E016F10671F081
:1006500061E070E080E090E00E94780989E292E039
:100660000E94F006F80181938F01EFCF0F90DF9188
:10067000CF911F910F91FF90EF90DF900895BF925F
:10068000CF92DF92EF92FF920F931F93CF93DF935E
:1006900000D0CDB7DEB77C016B0100E010E082E056
:1006A000B82EF70181899289009781F0BA8221E002
:1006B00030E0AE014F5F5F4FBE016E5F7F4F0E9423
:1006C000B80491E08981813041F417C0F70180813D
:1006D0000E94E40891E0882381F090E0C114D104E5
:1006E00029F0065F1F4FC016D10638F06AE070E0AF
:1006F00080E090E00E947809D4CF892F0F900F906E
:10070000DF91CF911F910F91FF90EF90DF90CF90ED
:10071000BF900895682F89E292E00C9439078FB753
:10072000F8948091D2028FBF08958CBD9DBD08952D
:10073000CF92DF92EF92FF920F931F93CF93DF93AD
:10074000EC0188819981892B09F08BC08885998576
:10075000892BE9F420E030E000E070E0E7E0F0E031
:10076000AB01022E02C0559547950A94E2F74170FD
:100770005527CF01821B930B01C0440F8A95EAF7DE
:10078000042B2F5F3F4F2830310551F701C0062F52
:1007900010E087E0E82EF12CCC24C394D12C110F6B
:1007A0008A8581111AC0B6010E2C01C0660F0A9409
:1007B000EAF760238D850E940D0961E08C850E9417
:1007C0000D098E858F3F29F00E94E408892B09F0DE
:1007D0004EC060E08C850E940D098A858430C9F482
:1007E00061E08C850E940D09B6010E2C01C0660FD8
:1007F0000A94EAF760238D850E940D0960E08C85DC
:100800000E940D098E858F3F21F00E94E408892BFC
:1008100081F581E0E81AF10810F688859985892B21
:10082000F1F420E030E080E0A12FB0E0E7E0F0E07C
:10083000AD01022E02C0559547950A94E2F741702A
:100840005527BF01621B730B01C0440F6A95EAF77D
:10085000842B2F5F3F4F2830310551F70CC0812F7B
:100860000AC06EBD0DB407FEFDCF8EB504C0116089
:10087000B0CF1160CECFDF91CF911F910F91FF903C
:10088000EF90DF90CF900895009769F0FC01019000
:100890000020E9F73197AF01481B590BBC0185E3F4
:1008A00092E00C94D90080E090E008958F929F929E
:1008B000AF92BF920F931F93CF93DF93CDB7DEB765
:1008C000A1970FB6F894DEBF0FBECDBF19A242307C
:1008D00008F44AE08E010F5D1F4F842E912CA12C4D
:1008E000B12CA50194010E94110EE62FB901CA0195
:1008F00001501109EA3014F4E05D01C0E95CD8014F
:10090000EC93232B242B252B61F7C8010E94440470
:10091000A1960FB6F894DEBF0FBECDBFDF91CF9189
:100920001F910F91BF90AF909F908F900895CF929D
:10093000DF92EF92FF92CF93DF936B017C016DE228
:1009400085E392E00E947001EC0166277727CB01D6
:100950006C197D098E099F094AE00E9456048C0F8C
:100960009D1FDF91CF91FF90EF90DF90CF90089582
:10097000CF92DF92EF92FF920F931F93CF93DF936B
:10098000EC018B016A01790188819981892B31F011
:10099000EA81FB81808191810E94950360E08B85D3
:1009A0000E940D09F8016081CE010E9498036AE05F
:1009B00070E080E090E00E9478098601EC0CFD1C5C
:1009C000E016F10641F06FEFCE010E949803F801A6
:1009D00081938F01F5CF61E08B850E940D0981E045
:1009E000DF91CF911F910F91FF90EF90DF90CF900B
:1009F00008952F923F924F925F926F927F928F92C3
:100A00009F92AF92BF92CF92DF92EF92FF920F939D
:100A10001F93CF93DF93CDB7DEB727970FB6F89428
:100A2000DEBF0FBECDBF7C014A012DB63EB6DC0154
:100A30005196CD90DC90529766246394660EC11453
:100A4000D10409F472C04DB65EB670E0685F7F4FA6
:100A5000EDB7FEB7E61BF70B0FB6F894FEBF0FBE5F
:100A6000EDBF0DB71EB70F5F1F4F81E08183D80127
:100A700011961C92119712961C9212978FEF139653
:100A80008C93139714966C921497862D81951596D6
:100A90008C93159784ED16968C934DB75EB7485F8F
:100AA0005F4FFA0163ED712C9301215031098E2FB4
:100AB000841B90E0821793073CF4DC01A751BE4FE2
:100AC0008C918193680FF3CF609560831182B8E0B9
:100AD0006B0E711CF60180819181892B39F00280A7
:100AE000F381E02D808191810E94950360E0D60121
:100AF0001B968C910E940D095801F50161915F01CF
:100B0000C6010E949803C501801B910B86159705AD
:100B1000A0F361E0D6011B968C910E940D090FB6DF
:100B2000F8945EBE0FBE4DBE90C062E070E080E003
:100B300090E00E94780981E08093C60184E280936E
:100B4000D3021092C7011092E80180E00E948A034C
:100B500080E00E948A038FEF0E948A03862D0E9404
:100B60008A03862D81950E948A0384ED0E948A0360
:100B7000C12C83EDD82E712CB1E06B1A71080C2DAD
:100B800010E0061517055CF407511E4FF80180812F
:100B90000E948A03D8018C91D80EC394F0CF8D2D7A
:100BA00080950E948A0380E00E948A039091E80168
:100BB000913208F044C08091C5018111FCCF82E0E0
:100BC0008093C50181E08093C4018FEF8093C301BE
:100BD0001092C2019093C101E8ECF1E0A1EAB1E00A
:100BE00080E0981721F021912D938F5FFACF10921A
:100BF000A0018091A00188648093A00180919F0151
:100C0000813061F410929F018091A0018093BB001C
:100C10008091BC0083FDF8CF85EC01C085EE809308
:100C2000BC008091C5018230E1F38091C3018F3F08
:100C300031F08091C301803211F08091C301109294
:100C4000C7011092E8011092C601B401C7010E94C9
:100C50003F03182F811102C010E02FC0F7018189D6
:100C60009289009769F023E02F8326E030E0AE01FF
:100C70004F5F5F4FBE01695F7F4F0E94B80407C09E
:100C800046E0BE016F5F7F4FC7010E94AE0246E0A3
:100C900050E066E071E0CE0101960E942510892B9C
:100CA000D9F6D70151968D919C915297892B29F0B5
:100CB000B401C7010E943F03182F812F0FB6F8948B
:100CC0003EBE0FBE2DBE27960FB6F894DEBF0FBEF8
:100CD000CDBFDF91CF911F910F91FF90EF90DF90EB
:100CE000CF90BF90AF909F908F907F906F905F90CC
:100CF0004F903F902F9008950F931F93CF93DF93C2
:100D00008C01C0E0D0E0F801EC0FFD1F6491662378
:100D100041F085E392E00E947001892B11F0219649
:100D2000F2CFCE01DF91CF911F910F910895CF9314
:100D3000DF93FC01448155816081718185E392E0FC
:100D40000E94D900EC0189E791E00E9444048C0FD5
:100D50009D1FDF91CF91089585ED8093BC00809118
:100D6000BC0084FDFCCF1092C5010895409123037F
:100D7000262F30E0240F311D21323105DCF4209183
:100D8000C5012430C9F4FC0180E090E0861758F4D6
:100D9000309123032191DC01AD5FBC4FA30FB11D46
:100DA0002C930196F3CF80912303680F6093230364
:100DB00080E0089581E0089582E0089508950895FF
:100DC0000895E091F5028091F402E81730F4F0E024
:100DD000EC52FD4F808190E008958FEF9FEF0895D2
:100DE0009091F5028091F402981750F4E92FF0E009
:100DF000EC52FD4F208130E09F5F9093F50202C0DE
:100E00002FEF3FEFC90108958091F40290E0209107
:100E1000F502821B91090895CF92DF92EF92FF9223
:100E20000F931F93CF93DF937C01CB018A01209115
:100E3000C601222389F0EB016B01C40ED51ECC152F
:100E4000DD0569F06991D701ED91FC910190F08188
:100E5000E02DC7010995F3CF642F0E94B606C801A3
:100E6000DF91CF911F910F91FF90EF90DF90CF9086
:100E70000895CF93DF931F92CDB7DEB7698320919A
:100E8000C6012223D1F02091E801203240F021E078
:100E900030E0FC013383228380E090E015C0809134
:100EA000C701E82FF0E0E853FE4F998190838F5FF0
:100EB0008093C7018093E80105C061E0CE010196EF
:100EC0000E94B60681E090E00F90DF91CF910895E7
:100ED000833081F028F4813099F08230A1F00895B8
:100EE0008730A9F08830B9F08430D1F48091800047
:100EF0008F7D03C0809180008F778093800008955C
:100F000084B58F7702C084B58F7D84BD08958091AC
:100F1000B0008F7703C08091B0008F7D8093B000C8
:100F200008953FB7F8948091FF0290910003A0913B
:100F30000103B091020326B5A89B05C02F3F19F00D
:100F40000196A11DB11D3FBFBA2FA92F982F882749
:100F5000820F911DA11DB11DBC01CD0142E0660FA4
:100F6000771F881F991F4A95D1F708951F920F92F6
:100F70000FB60F9211242F933F934F935F936F936C
:100F80007F938F939F93AF93BF93EF93FF93809142
:100F9000B900887F803609F49CC068F5883209F46E
:100FA0005BC090F4803109F454C038F4882309F40C
:100FB000F6C0883009F44DC0F6C0883109F44CC041
:100FC000803209F45DC0EFC0803409F468C048F491
:100FD000803309F455C0883309F0E5C08093C3011C
:100FE000D8C0803509F44FC0883509F45DC0883415
:100FF00009F0D9C0D6C0883909F4C7C0A8F4883729
:1010000009F467C038F4883609F463C0803709F4FE
:1010100060C0C9C0883809F4B8C0803909F45FC01D
:10102000803809F0C0C05BC0803B09F486C038F44A
:10103000803A09F466C0883A09F47FC0B4C0803CA5
:1010400009F4A7C0883C09F4A4C0883B09F48AC00D
:10105000AAC08091A00110C09091C2018091C101ED
:10106000981770F5E091C20181E08E0F8093C20164
:10107000F0E0EF55FE4F80818093BB0085EC86C089
:101080008093C3018EC0E091C20181E08E0F8093F6
:10109000C2018091BB00F0E0EF55FE4F808390913C
:1010A000C2018091C1016EC0E091C20181E08E0F4A
:1010B0008093C2018091BB00F0E0EF55FE4F80832A
:1010C0008091C40181116DC081E080939F0184EA09
:1010D00061C083E08093C50110924503CFCF80911A
:1010E0004503803208F051C0E091450381E08E0F46
:1010F000809345038091BB00F0E0EB5DFC4F808363
:10110000BDCF85EC8093BC001092C5018091450352
:10111000803230F4E0914503F0E0EB5DFC4F10824B
:101120006091450370E0E091F802F091F90285E2E8
:1011300093E009951092450336C084E08093C50181
:101140001092240310922303E091F602F091F7022B
:10115000099580912303811105C081E080932303C9
:1011600010920303E091240381E08E0F8093240307
:10117000F0E0ED5FFC4F80818093BB0090912403F1
:1011800080912303981708F479CF85E88093BC00F9
:101190000AC085EC8093BC001092C50104C0109277
:1011A000C3010E94AC06FF91EF91BF91AF919F9157
:1011B0008F917F916F915F914F913F912F910F9000
:1011C0000FBE0F901F901895CF93DF93282F30E01C
:1011D000F901E85BFE4F8491F901EC5CFE4FD4917C
:1011E000F901E05EFE4FC491CC2391F081110E9481
:1011F0006807EC2FF0E0EE0FFF1FEA5EFE4FA591AF
:10120000B491EC91ED2381E090E021F480E002C004
:1012100080E090E0DF91CF9108951F93CF93DF930B
:10122000282F30E0F901E85BFE4F8491F901EC5C76
:10123000FE4FD491F901E05EFE4FC491CC23C1F082
:10124000162F81110E946807EC2FF0E0EE0FFF1FB0
:10125000E45FFE4FA591B4919FB7F894111104C0BB
:101260008C91D095D82302C0EC91DE2BDC939FBFEC
:10127000DF91CF911F910895CF93DF9390E0FC0110
:10128000EC5CFE4F2491FC01E05EFE4F84918823CC
:1012900061F190E0880F991FFC01EE5FFE4FC59150
:1012A000D491FC01E45FFE4FA591B491611109C096
:1012B0009FB7F8948881209582238883EC912E2310
:1012C0000BC0623061F49FB7F8948881322F30955B
:1012D00083238883EC912E2B2C939FBF06C08FB75E
:1012E000F894E8812E2B28838FBFDF91CF9108954A
:1012F0008F929F92AF92BF92CF92DF92EF92FF9226
:101300006B017C010E9491074B015C01C114D10467
:10131000E104F104F1F00E949107DC01CB0188198E
:101320009909AA09BB09883E9340A105B10570F34C
:1013300021E0C21AD108E108F10888EE880E83E0A6
:10134000981EA11CB11CC114D104E104F10419F7C9
:10135000DDCFFF90EF90DF90CF90BF90AF909F9048
:101360008F9008951F920F920FB60F9211242F9312
:101370003F938F939F93AF93BF938091FB02909184
:10138000FC02A091FD02B091FE023091FA0223E02E
:10139000230F2D3720F40196A11DB11D05C026E8AD
:1013A000230F0296A11DB11D2093FA028093FB0228
:1013B0009093FC02A093FD02B093FE028091FF0285
:1013C00090910003A0910103B09102030196A11D29
:1013D000B11D8093FF0290930003A0930103B0938B
:1013E0000203BF91AF919F918F913F912F910F90E9
:1013F0000FBE0F901F901895CF93DF93CDB7DEB738
:101400002F970FB6F894DEBF0FBECDBF789484B58A
:10141000826084BD84B5816084BD85B5826085BDF0
:1014200085B5816085BD80916E00816080936E007E
:101430001092810080918100826080938100809170
:101440008100816080938100809180008160809321
:1014500080008091B10084608093B1008091B000E1
:1014600081608093B00080917A00846080937A00DC
:1014700080917A00826080937A0080917A00816006
:1014800080937A0080917A00806880937A0010922D
:10149000C100E0914502F091460282E08083E09134
:1014A0004102F09142021082E0914302F091440225
:1014B00083E3808310924D02E0914902F0914A0249
:1014C00086E08083E0914702F0914802808180614C
:1014D0008083E0914702F091480280818860808398
:1014E000E0914702F0914802808180688083E0911A
:1014F0004702F091480280818F7D80838AE491E0E9
:101500000E94440402E111E01D870C8705E911E007
:101510001B870A87812C912C5401CC24CA94DD248A
:10152000D3948E010F5F1F4F1987088783E190E0E6
:101530000E94390E7C01AC85BD856C901496BD87E8
:10154000AC87FC01C082C18280E190E00E94390E2C
:101550008C01DC011B966C921B97EDE01C96EC93C2
:101560001C97FCE01E96FC931E978BE01D968C93B7
:1015700080E492E4AFE0B0E0F80184839583A68331
:10158000B783118610861286178682E090E00E944B
:10159000390E21E7DC012C9311961C92F8019383FC
:1015A000828311821082D70152961C930E93519719
:1015B000EA85FB85F182E0820115110509F474C00A
:1015C00061E0862D0E943C0961E0D8011B968C9158
:1015D0000E940D09F80180819181892B09F434C0A2
:1015E0006FB6F89480919401811127C0EAE2F1E08E
:1015F0008491EEE3F1E09491E82FF0E0EE0FFF1F0D
:10160000EE5FFE4FA591B4918C91982321F461E097
:101610008AE00E940D0961E08AE00E943C098CB5D5
:1016200080618CBD8CB580648CBD61E08DE00E94D2
:101630003C0961E08BE00E943C09809194018F5F3E
:10164000809394016FBE23C061E084850E943C09B1
:10165000F80182858B7F19F460E0848502C061E027
:1016600084850E940D09F80185858F3F49F061E06E
:101670000E943C0961E0D8011D968C910E940D09E1
:10168000F80186858F3F19F060E00E943C09D8017F
:101690001F96DC92B2E0B093E90144E650E061E0CD
:1016A000C7010E94F9044FC01092F5021092F40293
:1016B0001092C7011092E8011092C501D092C401A6
:1016C00010929F0161E082E10E940D0961E083E1D7
:1016D0000E940D098091B9008E7F8093B90080919E
:1016E000B9008D7F8093B90088E48093B80085E4C9
:1016F0008093BC00EEEDF6E0F093F702E093F60283
:101700000FED16E01093F9020093F80261E0D701A3
:1017100011968C910E940D0960E0F70181810E9471
:101720000D0960E971E080E090E00E94780961E0D5
:10173000D70111968C910E940D096AE070E080E05B
:1017400090E00E947809EA85FB8500811181F2E032
:10175000F093E90144E650E061E0C8010E94F90419
:10176000811104C0412C512C32012EC04CE069EE95
:1017700071E0C8010E94AE0246E050E060E071E016
:1017800089EE91E00E942510892B61F72090F001ED
:101790003090F101322423243224C101A0E0B0E0D2
:1017A0004427582F692F7A2F8091F2018A019B01DB
:1017B000082BD901C8014427582F692F7A2F80910F
:1017C000F3012A013B01482A8DEA90E00E947C0641
:1017D0004AE0C501B4010E94560489E791E00E94E5
:1017E00044041FE0411617E251066104710409F434
:1017F000AACF8CE791E00E944404472D5527662725
:10180000772720E1CE0101960E94EB01CE010196DF
:101810000E94970689819A810E94D10E8EE990E0FC
:101820000E947C06462D50E060E070E02AE0CE0188
:1018300001960E94EB014D815E8169817A8185E389
:1018400092E00E94D90089819A810E94D10E6EE2B5
:1018500085E392E00E947001452D50E060E070E069
:101860002AE0CE0101960E94EB01CE0101960E9472
:10187000970689819A810E94D10EAA85BB850D9118
:101880001D91BB87AA8784E18093E901D092EA0188
:101890008093EB01D092EC0144E650E064E0C80193
:1018A0000E94F904882331F048E069EE71E0C80134
:1018B0000E94AE0282E38093E901B5E0B093EA01B1
:1018C000C092EB01D092EC01D092ED0144E650E0E1
:1018D00065E0C8010E94F904EFEF8E1A9E0AAE0A75
:1018E000BE0AF5E08F169104A104B10409F01ECEE2
:1018F00088E690E00E947C0689E791E00E9444041B
:1019000005E911E01B870A87C12CD12C7601A88537
:10191000B985E7E01D92EA95E9F78BE891E00E942E
:1019200044044AE0C701B6010E94560489E791E0E9
:101930000E944404AA85BB850D911D91BB87AA878F
:10194000BAE4B093E901E1E0E093EA011092EB011F
:1019500044EF51E063E0C8010E94F904882309F4D0
:10196000AFC0D80151968D919C915297892B99F0D7
:1019700044E169EE71E0C8010E94AE028091F0017D
:10198000813009F09DC00091F501A6EFB1E0FE01A4
:1019900031961F0108C064EF71E0C8010E943F0347
:1019A0008111E6CF8DC08E2F1885811B801718F40A
:1019B0008D918193F8CF84EE90E00E947C0686EDB5
:1019C00090E00E947C06402E512C612C712C812CC1
:1019D000912C5401D301C2010197A109B1098C874F
:1019E0009D87AE87BF8784149504A604B70468F565
:1019F0008BEC90E00E947C06D1011D911D011031FD
:101A000020F489EC90E00E947C06612F70E080E079
:101A100090E040E10E945604B1E04B16510461048D
:101A2000710469F08C859D85AE85BF858816990601
:101A3000AA06BB0621F087EC90E00E947C069FEF8F
:101A4000891A990AA90AB90ACECF89E791E00E94BA
:101A500044040430A9F589809A8098248924982424
:101A6000A12CB12CBA2CA92C982C88248B81882AE3
:101A7000BA2CA92C982C88248C81882A8EEC90E092
:101A80000E947C064AE0C501B4010E94560489E721
:101A900091E00E94440464EF71E080E090E00E94D5
:101AA0007809AFEFCA1ADA0AEA0AFA0AB5E0CB16E1
:101AB000D104E104F10409F02ACF0E94DF0120CF14
:101AC000812C912C5401DACFE9E2F2E013821282E8
:101AD00088EE93E0A0E0B0E084839583A683B7838B
:101AE0002AE231E031832083E5E3F2E013821282BF
:101AF00084839583A683B7838CE391E0918380836D
:101B000085EC90E09587848784EC90E097878687C2
:101B100080EC90E0918B808B81EC90E0938B828BBA
:101B200082EC90E0958B848B86EC90E0978B868B93
:101B3000118E128E138E148E08952532310520F4E5
:101B4000223010F00C94A80DFA011082CA010895F9
:101B5000BB27FA01A62F6217710581059105330B8A
:101B600030FB66F0AA27660F771F881F991FAA1FF0
:101B7000A21710F0A21B63953850A9F7A05DAA33F5
:101B800008F0A95DA19336F7B111B1931082CA0193
:101B90000C94CA0DDC01FC01672F71917723E1F7EA
:101BA000329704C07C916D9370836291AE17BF072A
:101BB000C8F308952F923F924F925F926F927F9257
:101BC0008F929F92AF92BF92CF92DF92EF92FF924D
:101BD0000F931F93CF93DF93CDB7DEB7CA1BDB0BF9
:101BE0000FB6F894DEBF0FBECDBF09942A8839889E
:101BF00048885F846E847D848C849B84AA84B984A5
:101C0000C884DF80EE80FD800C811B81AA81B981B0
:101C1000CE0FD11D0FB6F894DEBF0FBECDBFED01C4
:101C20000895A1E21A2EAA1BBB1BFD010DC0AA1F1D
:101C3000BB1FEE1FFF1FA217B307E407F50720F035
:101C4000A21BB30BE40BF50B661F771F881F991FB0
:101C50001A9469F760957095809590959B01AC01F9
:101C6000BD01CF010895EE0FFF1F0590F491E02D07
:101C700009940F931F93CF93DF938230910510F453
:101C800082E090E0E0914803F091490320E030E0E9
:101C9000A0E0B0E0309719F14081518102811381B9
:101CA00048175907C8F08417950769F4109731F061
:101CB00012960C93129713961C9327C00093480317
:101CC0001093490322C02115310519F0421753071B
:101CD00018F49A01BD01EF01DF01F801DBCF2115F6
:101CE0003105F9F0281B390B2430310580F48A8145
:101CF0009B816115710521F0FB019383828304C0F0
:101D00009093490380934803FE01329644C0FE013C
:101D1000E20FF31F81939193225031093983288375
:101D20003AC02091460330914703232B41F4209180
:101D30000E0130910F013093470320934603209109
:101D40000C0130910D012115310541F42DB73EB73D
:101D50004091100150911101241B350BE091460375
:101D6000F0914703E217F307A0F42E1B3F0B28174F
:101D7000390778F0AC014E5F5F4F2417350748F004
:101D80004E0F5F1F509347034093460381939193F7
:101D900002C0E0E0F0E0CF01DF91CF911F910F9101
:101DA0000895CF93DF93009709F481C0FC01329727
:101DB00013821282A0914803B0914903109781F4D5
:101DC00020813181820F931F209146033091470378
:101DD0002817390751F5F0934703E093460367C08E
:101DE000ED0120E030E0CE17DF0740F44A815B814F
:101DF0009E0141155105F1F0EA01F5CFD383C2836D
:101E000040815181840F951FC817D90759F48881E3
:101E10009981840F951F0296918380838A819B818B
:101E2000938382832115310529F4F0934903E093CC
:101E300048033DC0E901FB83EA8349915991C40FEE
:101E4000D51FEC17FD0761F480819181840F951FE8
:101E50000296E90199838883828193819B838A8397
:101E6000E0E0F0E012968D919C911397009719F0A5
:101E7000FD01DC01F7CF8D919C9111979D012E5FA3
:101E80003F4F820F931F209146033091470328173D
:101E9000390769F4309729F41092490310924803E6
:101EA00002C013821282B0934703A0934603DF91CE
:101EB000CF910895A0E0B0E0E0E6FFE00C94DE0DE5
:101EC000EC01009721F4CB010E94390EB4C0FC0153
:101ED000E60FF71F9C0122503109E217F30708F4BF
:101EE000A8C0D9010D911C91119706171707B0F0E2
:101EF0000530110508F49BC0C801049786179707A1
:101F000008F495C002501109061B170B0193119399
:101F10006D937C93CF010E94D10E89C05B01A01A02
:101F2000B10A4C01800E911EA0914803B091490363
:101F3000612C712CE12CF12C109709F446C08D9185
:101F40009C911197A815B905B1F56C0142E0C40E3A
:101F5000D11CCA14DB0478F14C018A189B08640177
:101F600042E0C40ED11C1296BC9012971396AC910D
:101F7000B5E0CB16D10440F0B282A3839182808277
:101F8000D9016D937C9309C00E5F1F4F800F911F85
:101F9000F90191838083EB2DFA2FE114F10431F0E4
:101FA000D7011396FC93EE93129741C0F093490327
:101FB000E09348033CC06816790608F43C017D01B3
:101FC00012960D90BC91A02DB7CF809146039091B1
:101FD000470388169906E1F466167706C8F48091DF
:101FE0000C0190910D01009741F48DB79EB740917F
:101FF000100150911101841B950BE817F907C8F4E3
:10200000F0934703E0934603F901718360830FC0A7
:10201000CB010E94390E7C01009759F0A801BE0146
:102020000E943210CE010E94D10EC70104C0CE0121
:1020300002C080E090E0CDB7DEB7EEE00C94FA0D80
:1020400081E090E0F8940C944210FB01DC0104C0A4
:102050008D910190801921F441505040C8F7881BA0
:10206000990B0895FB01DC0102C001900D924150D3
:102070005040D8F70895FB01DC0101900D9200203B
:08208000E1F70895F894FFCF89
:102088000000FF06FAD50000FF00FF0000004A0329
:102098002000030000000400000005000000060006
:1020A8000000070000000000000039070C070401C9
:1020B800E0060407F006E106000000007001D90000
:1020C8000701BD01380116012A0157656C636F6D60
:1020D8006520746F2074686520457363617065209E
:1020E800526F6F6D2052464944204761646765749A
:1020F8002076302E302E3121000D0A00466F756E85
:1021080064206368697020504E350052454144454B
:04211800522023002E
:00000001FF
