:100000000C9466000C948E000C948E000C948E0060
:100010000C948E000C948E000C948E000C948E0028
:100020000C948E000C948E000C948E000C948E0018
:100030000C948E000C948E000C948E000C948E0008
:100040000C9432020C948E000C94A2020C947C024C
:100050000C948E000C948E000C948E000C948E00E8
:100060000C9455050C948E00200030003078000070
:10007000000000240027002A0000000000250028BE
:10008000002B0000000000230026002900040404C7
:100090000404040404020202020202030303030331
:1000A000030102040810204080010204081020010E
:1000B00002040810200000000800020100000304F0
:1000C00007000000000000000000850D11241FBE85
:1000D000CFEFD8E0DEBFCDBF24E0AEE4B2E001C098
:1000E0001D92AA30B207E1F712E0A0E0B1E0EAEC1D
:1000F000F0E202C005900D92AE34B107D9F710E0DE
:10010000C6E6D0E004C02197FE010E94540EC53619
:10011000D107C9F70E94C1090C9463100C94000028
:10012000CF92DF92EF92FF920F931F93CF93DF93C3
:100130006C017A018B01C0E0D0E0CE15DF0581F0C3
:10014000D8016D918D01D601ED91FC910190F08166
:10015000E02DC6010995892B11F02196EECF7E0185
:10016000C701DF91CF911F910F91FF90EF90DF902A
:10017000CF900895089580E090E00895FC01538D9C
:10018000448D252F30E0842F90E0821B930B541771
:1001900010F0CF96089501970895FC01918D828DFE
:1001A000981761F0828DDF01A80FB11D5D968C91CB
:1001B000928D9F5F9F73928F90E008958FEF9FEFD6
:1001C0000895FC01918D828D981731F0828DE80F92
:1001D000F11D858D90E008958FEF9FEF0895FC014C
:1001E000918D228D892F90E0805C9F4F821B910919
:1001F0008F739927089583E093E00E94EF0021E038
:10020000892B09F420E0822F0895FC01848DDF0101
:10021000A80FB11DA35ABF4F2C91848D90E0019679
:100220008F739927848FA689B7892C93A089B18968
:100230008C91837080648C93938D848D981306C009
:100240000288F389E02D80818F7D80830895EF926D
:10025000FF920F931F93CF93DF93EC0181E0888F80
:100260009B8D8C8D981305C0E889F989808185FD67
:1002700026C0F62E0B8D10E00F5F1F4F0F73112756
:10028000E02E8C8DE8120CC00FB607FCFACFE8897F
:10029000F989808185FFF5CFCE010E940501F1CF5C
:1002A0008B8DFE01E80FF11DE35AFF4FF0829FB7DF
:1002B000F8940B8FEA89FB89808180620AC09FB71E
:1002C000F894EE89FF896083E889F98980818370D9
:1002D000806480839FBF81E090E0DF91CF911F9188
:1002E0000F91FF90EF900895CF93DF93EC01888DED
:1002F0008823C9F0EA89FB89808185FD05C0A8892A
:10030000B9898C9186FD0FC00FB607FCF5CF8081AF
:1003100085FFF2CFA889B9898C9185FFEDCFCE01F9
:100320000E940501E7CFDF91CF91089580E090E032
:10033000892B29F00E94FB0081110C940000089584
:100340000E944110CF92DF92EF92FF920F931F9382
:10035000CF93DF93CDB7DEB7A1970FB6F894DEBF8A
:100360000FBECDBF8C01CB01BA01F8011182108202
:10037000138212821582148230E0AE014F5F5F4F0C
:100380006A010E94BE0DF60101900020E9F7319745
:100390007F01EC18FD08F80180819181009729F018
:1003A000228133812E153F0508F5B7016F5F7F4F1E
:1003B0000E947B0FF801009759F091838083F382AC
:1003C000E28224813581232B89F4FC0110820EC046
:1003D00080819181009711F00E94F20EF801118244
:1003E0001082158214821382128208C0F801F582ED
:1003F000E482B601808191810E945C10A1960FB6C3
:10040000F894DEBF0FBECDBFDF91CF911F910F914A
:10041000FF90EF90DF90CF9008953FB7F8948091D0
:10042000640290916502A0916602B091670226B5C0
:10043000A89B05C02F3F19F00196A11DB11D3FBF1C
:10044000BA2FA92F982F8827820F911DA11DB11DAA
:10045000BC01CD0142E0660F771F881F991F4A95A6
:10046000D1F708951F920F920FB60F9211242F9378
:100470003F938F939F93AF93BF938091600290912E
:100480006102A0916202B091630230915F0223E0A9
:10049000230F2D3720F40196A11DB11D05C026E8BC
:1004A000230F0296A11DB11D20935F02809360026D
:1004B00090936102A0936202B09363028091640200
:1004C00090916502A0916602B09167020196A11D0C
:1004D000B11D8093640290936502A0936602B0936D
:1004E0006702BF91AF919F918F913F912F910F9094
:1004F0000FBE0F901F9018951F920F920FB60F927C
:1005000011242F933F934F935F936F937F938F9318
:100510009F93AF93BF93EF93FF9383E093E00E9489
:100520000501FF91EF91BF91AF919F918F917F91C5
:100530006F915F914F913F912F910F900FBE0F9050
:100540001F9018951F920F920FB60F9211242F93A0
:100550008F939F93EF93FF93E0911303F091140314
:100560008081E0911903F0911A0382FD12C09081FD
:1005700080911C038F5F8F7320911D03821751F0B0
:10058000E0911C03F0E0ED5FFC4F958F80931C031E
:1005900001C08081FF91EF919F918F912F910F90DA
:1005A0000FBE0F901F901895DF92EF92FF920F935E
:1005B0001F93CF93DF931F92CDB7DEB7D62EE72ED2
:1005C000F42EFC0181899289009761F023E0298350
:1005D000242F30E0462F572FBE016F5F7F4F0E94C0
:1005E000FD076AC062E070E080E090E00E94C3070F
:1005F0008091B4028111FCCF82E08F0D813208F02E
:1006000080E291E09093B4029093B3022FEF209395
:10061000B2021092B102280F2093B00290938F0281
:1006200090918F02986490938F0290918E029130F6
:1006300061F410928E0290918F029093BB00909182
:10064000BC0093FDF8CF95EC01C095EE9093BC00F3
:100650009091B4029130E1F39091B102981710F4A7
:100660008091B102E0E9F2E0A8E6B2E090E09817EC
:1006700021F021912D939F5FFACF109289029093E0
:10068000880287EF92E00E9402040D2D1E2DC80102
:100690008F0D911D7C01E016F10671F061E070E0B4
:1006A00080E090E00E94C30787EF92E00E9402047E
:1006B000F80181938F01EFCF0F90DF91CF911F91C0
:1006C0000F91FF90EF90DF900895BF92CF92DF924D
:1006D000EF92FF920F931F93CF93DF9300D0CDB78C
:1006E000DEB77C016B0100E010E082E0B82EF7017C
:1006F00081899289009781F0BA8221E030E0AE01D1
:100700004F5F5F4FBE016E5F7F4F0E94FD0791E01C
:100710008981813041F417C0F70180810E948306EE
:1007200091E0882381F090E0C114D10429F0065FA4
:100730001F4FC016D10638F06AE070E080E090E00C
:100740000E94C307D4CF892F0F900F90DF91CF91D4
:100750001F910F91FF90EF90DF90CF90BF90089581
:10076000682F87EF92E00C944B048FB7F894809138
:10077000E3038FBF08958CBD9DBD089585ED8093E3
:10078000BC008091BC0084FDFCCF1092B40208959F
:100790004091C003262F30E0240F311D2132310556
:1007A000DCF42091B4022430C9F4FC0180E090E034
:1007B000861758F43091C0032191DC01A056BC4F3C
:1007C000A30FB11D2C930196F3CF8091C003680F46
:1007D0006093C00380E0089581E0089582E0089569
:1007E000089508950895E091890280918802E8179C
:1007F00030F4F0E0E859FD4F808190E008958FEFEC
:100800009FEF08959091890280918802981750F483
:10081000E92FF0E0E859FD4F208130E09F5F909391
:10082000890202C02FEF3FEFC9010895809188022D
:1008300090E020918902821B91090895CF92DF9266
:10084000EF92FF920F931F93CF93DF937C01CB0125
:100850008A012091E403222389F0EB016B01C40E8D
:10086000D51ECC15DD0569F06991D701ED91FC919C
:100870000190F081E02DC7010995F3CF642F0E940C
:10088000C803C801DF91CF911F910F91FF90EF90A6
:10089000DF90CF900895CF93DF931F92CDB7DEB74F
:1008A00069832091E4032223D1F02091B602203203
:1008B00040F021E030E0FC013383228380E090E0CF
:1008C00015C08091B502E82FF0E0EB51FC4F998103
:1008D00090838F5F8093B5028093B60205C061E07C
:1008E000CE0101960E94C80381E090E00F90DF9155
:1008F000CF910895833081F028F4813099F08230CF
:10090000A1F008958730A9F08830B9F08430D1F48F
:10091000809180008F7D03C0809180008F778093CD
:100920008000089584B58F7702C084B58F7D84BD23
:1009300008958091B0008F7703C08091B0008F7DC3
:100940008093B0000895009769F0FC0101900020A9
:10095000E9F73197AF01481B590BBC0183E093E0E5
:100960000C94900080E090E008958BE492E00C9469
:10097000A3048F929F92AF92BF920F931F93CF9336
:10098000DF93CDB7DEB7A1970FB6F894DEBF0FBEE9
:10099000CDBF19A2423008F44AE08E010F5D1F4F0F
:1009A000842E912CA12CB12CA50194010E94320E11
:1009B000E62FB901CA0101501109EA3014F4E05DD3
:1009C00001C0E95CD801EC93232B242B252B61F784
:1009D000C8010E94A304A1960FB6F894DEBF0FBE13
:1009E000CDBFDF91CF911F910F91BF90AF909F909E
:1009F0008F900895CF92DF92EF92FF92CF93DF9383
:100A00006B017C016DE283E093E00E942701EC0121
:100A100066277727CB016C197D098E099F094AE06B
:100A20000E94B9048C0F9D1FDF91CF91FF90EF9032
:100A3000DF90CF9008950F931F93CF93DF938C0196
:100A4000C0E0D0E0F801EC0FFD1F6491662341F097
:100A500083E093E00E942701892B11F02196F2CFC9
:100A6000CE01DF91CF911F910F910895CF93DF9326
:100A70000E94A304EC010E94B5048C0F9D1FDF911E
:100A8000CF910895CF93DF93FC014481558160811C
:100A9000718183E093E00E949000EC010E94B50414
:100AA0008C0F9D1FDF91CF9108951F920F920FB66B
:100AB0000F9211242F933F934F935F936F937F93E4
:100AC0008F939F93AF93BF93EF93FF938091B90060
:100AD000887F803609F49CC068F5883209F45BC0D1
:100AE00090F4803109F454C038F4882309F4F6C036
:100AF000883009F44DC0F6C0883109F44CC080320A
:100B000009F45DC0EFC0803409F468C048F4803354
:100B100009F455C0883309F0E5C08093B202D8C00B
:100B2000803509F44FC0883509F45DC0883409F078
:100B3000D9C0D6C0883909F4C7C0A8F4883709F4E9
:100B400067C038F4883609F463C0803709F460C0A0
:100B5000C9C0883809F4B8C0803909F45FC080384A
:100B600009F0C0C05BC0803B09F486C038F4803A0D
:100B700009F466C0883A09F47FC0B4C0803C09F427
:100B8000A7C0883C09F4A4C0883B09F48AC0AAC065
:100B900080918F0210C09091B1028091B00298179D
:100BA00070F5E091B10281E08E0F8093B102F0E028
:100BB000E057FD4F80818093BB0085EC86C0809319
:100BC000B2028EC0E091B10281E08E0F8093B1023B
:100BD0008091BB00F0E0E057FD4F80839091B1021F
:100BE0008091B0026EC0E091B10281E08E0F8093DF
:100BF000B1028091BB00F0E0E057FD4F808380910F
:100C0000B30281116DC081E080938E0284EA61C0DD
:100C100083E08093B4021092E203CFCF8091E2038D
:100C2000803208F051C0E091E20381E08E0F8093A2
:100C3000E2038091BB00F0E0EE53FC4F8083BDCF18
:100C400085EC8093BC001092B4028091E203803264
:100C500030F4E091E203F0E0EE53FC4F108260913B
:100C6000E20370E0E0918C02F0918D0282EC93E05F
:100C700009951092E20336C084E08093B40210928A
:100C8000C1031092C003E0918A02F0918B02099592
:100C90008091C003811105C081E08093C003109250
:100CA000A003E091C10381E08E0F8093C103F0E0C7
:100CB000E056FC4F80818093BB009091C1038091EE
:100CC000C003981708F479CF85E88093BC000AC068
:100CD00085EC8093BC001092B40204C01092B20262
:100CE0000E94BE03FF91EF91BF91AF919F918F91B1
:100CF0007F916F915F914F913F912F910F900FBE18
:100D00000F901F901895CF93DF93282F30E0F901B3
:100D1000EB54FF4F8491F901EF55FF4FD491F90146
:100D2000E357FF4FC491CC2391F081110E947A04C4
:100D3000EC2FF0E0EE0FFF1FED57FF4FA591B491A0
:100D4000EC91ED2381E090E021F480E002C080E0AE
:100D500090E0DF91CF9108951F93CF93DF93282FD9
:100D600030E0F901EB54FF4F8491F901EF55FF4F4B
:100D7000D491F901E357FF4FC491CC23C1F0162F52
:100D800081110E947A04EC2FF0E0EE0FFF1FE7586C
:100D9000FF4FA591B4919FB7F894111104C08C91A5
:100DA000D095D82302C0EC91DE2BDC939FBFDF915E
:100DB000CF911F910895CF92DF92EF92FF920F9300
:100DC0001F93CF93DF93EC0188819981892B09F0E0
:100DD0008BC088859985892BE9F420E030E000E01C
:100DE00070E0E7E0F0E0AB01022E02C055954795B8
:100DF0000A94E2F741705527CF01821B930B01C083
:100E0000440F8A95EAF7042B2F5F3F4F28303105B6
:100E100051F701C0062F10E087E0E82EF12CCC241A
:100E2000C394D12C110F8A8581111AC0B6010E2CE2
:100E300001C0660F0A94EAF760238D850E94AC0614
:100E400061E08C850E94AC068E858F3F29F00E9460
:100E50008306892B09F04EC060E08C850E94AC06A9
:100E60008A858430C9F461E08C850E94AC06B601A5
:100E70000E2C01C0660F0A94EAF760238D850E944C
:100E8000AC0660E08C850E94AC068E858F3F21F019
:100E90000E948306892B81F581E0E81AF10810F69B
:100EA00088859985892BF1F420E030E080E0A12F3E
:100EB000B0E0E7E0F0E0AD01022E02C055954795A5
:100EC0000A94E2F741705527BF01621B730B01C002
:100ED000440F6A95EAF7842B2F5F3F4F2830310586
:100EE00051F70CC0812F0AC06EBD0DB407FEFDCFB7
:100EF0008EB504C01160B0CF1160CECFDF91CF911D
:100F00001F910F91FF90EF90DF90CF900895CF93B6
:100F1000DF9390E0FC01EF55FF4F2491FC01E35774
:100F2000FF4F8491882361F190E0880F991FFC01A5
:100F3000E159FF4FC591D491FC01E758FF4FA591AE
:100F4000B491611109C09FB7F894888120958223DC
:100F50008883EC912E230BC0623061F49FB7F89424
:100F60008881322F309583238883EC912E2B2C930C
:100F70009FBF06C08FB7F894E8812E2B28838FBFC0
:100F8000DF91CF9108958F929F92AF92BF92CF92AF
:100F9000DF92EF92FF926B017C010E940D024B01E8
:100FA0005C01C114D104E104F104F1F00E940D02CE
:100FB000DC01CB0188199909AA09BB09883E934035
:100FC000A105B10570F321E0C21AD108E108F108CA
:100FD00088EE880E83E0981EA11CB11CC114D104B8
:100FE000E104F10419F7DDCFFF90EF90DF90CF908F
:100FF000BF90AF909F908F900895CF92DF92EF9225
:10100000FF920F931F93CF93DF93EC018B016A0143
:10101000790188819981892B31F0EA81FB81808176
:1010200091810E94BB0360E08B850E94AC06F801B1
:101030006081CE010E94DB066AE070E080E090E013
:101040000E94C3078601EC0CFD1CE016F10641F07E
:101050006FEFCE010E94DB06F80181938F01F5CF7F
:1010600061E08B850E94AC0681E0DF91CF911F91FA
:101070000F91FF90EF90DF90CF9008952F923F92C5
:101080004F925F926F927F928F929F92AF92BF9298
:10109000CF92DF92EF92FF920F931F93CF93DF9344
:1010A000CDB7DEB727970FB6F894DEBF0FBECDBF22
:1010B0007C014A012DB63EB6DC015196CD90DC9004
:1010C000529766246394660EC114D10409F472C069
:1010D0004DB65EB670E0685F7F4FEDB7FEB7E61BBA
:1010E000F70B0FB6F894FEBF0FBEEDBF0DB71EB7DE
:1010F0000F5F1F4F81E08183D80111961C921197D9
:1011000012961C9212978FEF13968C931397149646
:101110006C921497862D819515968C93159784ED76
:1011200016968C934DB75EB7485F5F4FFA0163ED3B
:10113000712C9301215031098E2F841B90E082176E
:1011400093073CF4DC01A954BD4F8C918193680F47
:10115000F3CF609560831182B8E06B0E711CF601CD
:1011600080819181892B39F00280F381E02D80818B
:1011700091810E94BB0360E0D6011B968C910E9476
:10118000AC065801F50161915F01C6010E94DB06C2
:10119000C501801B910B86159705A0F361E0D60170
:1011A0001B968C910E94AC060FB6F8945EBE0FBEE3
:1011B0004DBE90C062E070E080E090E00E94C30706
:1011C00081E08093E40384E2809305041092B502E9
:1011D0001092B60280E00E94B00380E00E94B0034B
:1011E0008FEF0E94B003862D0E94B003862D81955B
:1011F0000E94B00384ED0E94B003C12C83EDD82E71
:10120000712CB1E06B1A71080C2D10E00615170552
:101210005CF409541D4FF80180810E94B003D8018D
:101220008C91D80EC394F0CF8D2D80950E94B00381
:1012300080E00E94B0039091B602913208F044C061
:101240008091B4028111FCCF82E08093B40281E0EE
:101250008093B3028FEF8093B2021092B102909309
:10126000B002E5EEF3E0A0E9B2E080E0981721F0EB
:1012700021912D938F5FFACF10928F0280918F0270
:10128000886480938F0280918E02813061F4109285
:101290008E0280918F028093BB008091BC0083FD01
:1012A000F8CF85EC01C085EE8093BC008091B4023C
:1012B0008230E1F38091B2028F3F31F08091B2022F
:1012C000803211F08091B2021092B5021092B602F3
:1012D0001092E403B401C7010E946503182F811125
:1012E00002C010E02FC0F70181899289009769F050
:1012F00023E02F8326E030E0AE014F5F5F4FBE0159
:10130000695F7F4F0E94FD0707C046E0BE016F5F27
:101310007F4FC7010E94D40246E050E067E071E0D1
:10132000CE0101960E944610892BD9F6D70151961D
:101330008D919C915297892B29F0B401C7010E948D
:101340006503182F812F0FB6F8943EBE0FBE2DBE39
:1013500027960FB6F894DEBF0FBECDBFDF91CF91B9
:101360001F910F91FF90EF90DF90CF90BF90AF90C3
:101370009F908F907F906F905F904F903F902F90B5
:101380000895CF93DF93CDB7DEB7E3970FB6F89408
:10139000DEBF0FBECDBF789484B5826084BD84B5B6
:1013A000816084BD85B5826085BD85B5816085BD60
:1013B00080916E00816080936E0010928100809118
:1013C00081008260809381008091810081608093A0
:1013D0008100809180008160809380008091B100C5
:1013E00084608093B1008091B00081608093B000F0
:1013F00080917A00846080937A0080917A00826084
:1014000080937A0080917A00816080937A00809145
:101410007A00806880937A001092C100E0911303F3
:10142000F091140382E08083E0910F03F0911003A8
:101430001082E0911103F091120383E380831092F4
:101440001B03E0911703F091180386E08083E0917D
:101450001503F0911603808180618083E09115036C
:10146000F0911603808188608083E0911503F091EC
:101470001603808180688083E0911503F091160344
:1014800080818F7D808387E791E00E94360523E18C
:1014900031E03DA72CA74FE452E05BA74AA7812C7F
:1014A000912C5401E0E42E2EE2E43E2EEFE04E2E8D
:1014B000512CF2E07F2E83E190E00E945A0E7C01D5
:1014C000ACA5BDA56C901496BDA7ACA72FEFFC01F1
:1014D0002083218380E190E00E945A0E8C01DC0180
:1014E0001B966C921B97EDE01C96EC931C97FCE00E
:1014F0001E96FC931E978BE01D968C931D97149659
:101500002D923D924D925C92179719961C921E92C5
:1015100018971A961C921A971F961C9282E090E0D8
:101520000E945A0E21E7FC0120831182D8011396F4
:101530009C938E9312971D921C92F701128B018B34
:10154000AAA5BBA5ED92FC920115110509F475C081
:1015500061E0862D0E94870761E0F80183850E9483
:10156000AC06D8018D919C91892B09F434C06FB6DB
:10157000F89480914E02811127C0E7E9F0E0849150
:10158000EBEAF0E09491E82FF0E0EE0FFF1FE15955
:10159000FF4FA591B4918C91982321F461E08AE0EA
:1015A0000E94AC0661E08AE00E9487078CB58061EA
:1015B0008CBD8CB580648CBD61E08DE00E94870796
:1015C00061E08BE00E94870780914E028F5F8093DD
:1015D0004E026FBE25C061E0D8011C968C910E941E
:1015E0008707F80182858B7F19F460E0848502C04B
:1015F00061E084850E94AC06F80185858F3F49F043
:1016000061E00E94870761E0D8011D968C910E94DD
:10161000AC06F80186858F3F19F060E00E948707CD
:10162000E1E0D8011F96EC937092B70244E650E0D7
:1016300061E0C7010E943E0850C0109289021092DA
:1016400088021092B5021092B6021092B402F1E034
:10165000F093B30210928E0261E082E10E94AC0628
:1016600061E083E10E94AC068091B9008E7F809397
:10167000B9008091B9008D7F8093B90088E4809390
:10168000B80085E48093BC0020EF33E030938B02F8
:1016900020938A0241EF53E050938D0240938C02D5
:1016A00061E0D70111968C910E94AC0660E0F701D1
:1016B00081810E94AC0660E971E080E090E00E94C8
:1016C000C30761E0D70111968C910E94AC066AE0D5
:1016D00070E080E090E00E94C307EAA5FBA50081CE
:1016E00011817092B70244E650E061E0C8010E94A7
:1016F0003E08811104C0C12CD12C760129C04CE0D8
:1017000067EB72E0C8010E94D40246E050E060E05E
:1017100071E087EB92E00E944610892B61F780917F
:10172000BE029091BF02982789279827A0E0B0E0D9
:10173000BA2FA92F982F88272091C002822BBA2F69
:10174000A92F982F88272091C1026C017D01C22A00
:101750008AE991E00E94A3044AE0C501B4010E9415
:10176000B9040E94B504FFE0CF16F7E2DF06E104FA
:10177000F10409F4B2CF84EB91E00E94A3044F2D51
:1017800055276627772720E1CE0101960E94A20106
:10179000CE0101960E94420589819A810E94F20E33
:1017A00083EC91E00E94A3044E2D50E060E070E0D5
:1017B0002AE0CE0101960E94A2014D815E816981DD
:1017C0007A8183E093E00E94900089819A810E944F
:1017D000F20E6EE283E093E00E9427014D2D50E06F
:1017E00060E070E02AE0CE0101960E94A201CE01E5
:1017F00001960E94420589819A810E94F20EAAA553
:10180000BBA50D911D91BBA7AAA784E18093B70248
:10181000B1E0B093B8028093B902B093BA0244E643
:1018200050E064E0C8010E943E08882331F048E09F
:1018300067EB72E0C8010E94D40282E38093B70292
:10184000E5E0E093B802FFEFF093B90221E02093C6
:10185000BA022093BB0244E650E065E0C8010E9452
:101860003E083FEF831A930AA30AB30A48E084169E
:101870009104A104B10409F01ECE82ED91E00E9412
:1018800036050E94B504CE01819699A788A780915C
:101890000601882309F4EBC0DE011196BBA7AAA7B5
:1018A000FD0128A539A52E173F0729F011921192A5
:1018B00011921192F6CF4FE452E05FA74EA7CE01EE
:1018C00001969DA78CA7812C912C54018394A8A5E7
:1018D000B9A5E7E01D92EA95E9F783EF91E00E9450
:1018E000A3044AE0C501B4010E94B9040E94B504F2
:1018F000AEA5BFA50D911D91BFA7AEA7BAE4B09349
:10190000B702E1E0E093B8021092B90244EF51E06F
:1019100063E0C8010E943E08882309F4ABC0D801E7
:1019200051968D919C915297892BA9F044E167EBD8
:1019300072E0C8010E94D4028091BE02813009F099
:1019400099C00091C302A4ECB2E01E01E1E22E0EA8
:10195000311CF10108C064EF71E0C8010E94650309
:101960008111E4CF87C08E2F8219801708F0A4C0A0
:101970008D918193F8CF8CE690E00E941B05D101F8
:101980001D911D01103120F48AE690E00E941B0594
:10199000612F70E080E090E040E10E94B904B1E086
:1019A0004B1651046104710409F0A0C03FEFC31A43
:1019B000D30AE30AF30AC414D504E604F704D8F200
:1019C0000E94B504043009F055C0C9A0DAA0DC2497
:1019D000CD24DC24E12CF12CFE2CED2CDC2CCC24B1
:1019E0008BA1C82AFE2CED2CDC2CCC248CA1C82A7F
:1019F0008CEF91E00E94A3044AE0C701B6010E9467
:101A0000B9040E94B504ACA5BDA5CD92DD92ED92BE
:101A1000FD92BDA7ACA70E94B50464EF71E080E021
:101A200090E00E94C307BFEF8B1A9B0AAB0ABB0A68
:101A3000E9E08E169104A104B10409F048CF33E324
:101A4000E32E31E0F32E80E090E0DC0128A539A5FB
:101A50004AA55BA52417350789F40897A105B105A8
:101A600019F584E092E00E943605109206010E946A
:101A700096010DCFC12CD12C7601BACFFA0101917C
:101A8000119121913191FBA7EAA7F7014191519161
:101A9000619171917F010417150726073707B1F689
:101AA0000196A11DB11DD2CF83E192E00E943605BF
:101AB000F1E0F0930601DBCF81E292E00E94A30403
:101AC0008FE392E00E94A304402E512C612C712CD4
:101AD000C12CD12C7601A301920121503109410979
:101AE000510928AB39AB4AAB5BAB65CF28A939A903
:101AF0004AA95BA9C216D306E406F50609F456CF37
:101B000088E690E00E941B0551CFE7EFF2E01382D8
:101B1000128288EE93E0A0E0B0E084839583A683F0
:101B2000B78327E531E031832083E3E0F3E01382DC
:101B3000128284839583A683B78389E691E091839B
:101B4000808385EC90E09587848784EC90E097878C
:101B5000868780EC90E0918B808B81EC90E0938B7A
:101B6000828B82EC90E0958B848B86EC90E0978B57
:101B7000868B118E128E138E148E089525323105A8
:101B800020F4223010F00C94C90DFA011082CA0121
:101B90000895BB27FA01A62F6217710581059105EB
:101BA000330B30FB66F0AA27660F771F881F991F3B
:101BB000AA1FA21710F0A21B63953850A9F7A05DC9
:101BC000AA3308F0A95DA19336F7B111B193108241
:101BD000CA010C94EB0DDC01FC01672F7191772396
:101BE000E1F7329704C07C916D9370836291AE17D8
:101BF000BF07C8F308952F923F924F925F926F9262
:101C00007F928F929F92AF92BF92CF92DF92EF928C
:101C1000FF920F931F93CF93DF93CDB7DEB7CA1B0D
:101C2000DB0B0FB6F894DEBF0FBECDBF09942A8838
:101C3000398848885F846E847D848C849B84AA84E0
:101C4000B984C884DF80EE80FD800C811B81AA816D
:101C5000B981CE0FD11D0FB6F894DEBF0FBECDBF38
:101C6000ED010895A1E21A2EAA1BBB1BFD010DC0B8
:101C7000AA1FBB1FEE1FFF1FA217B307E407F5073C
:101C800020F0A21BB30BE40BF50B661F771F881F18
:101C9000991F1A9469F760957095809590959B01AE
:101CA000AC01BD01CF010895EE0FFF1F0590F49127
:101CB000E02D09940F931F93CF93DF93823091050A
:101CC00010F482E090E0E0910804F091090420E033
:101CD00030E0A0E0B0E0309719F1408151810281FD
:101CE000138148175907C8F08417950769F41097AE
:101CF00031F012960C93129713961C9327C0009301
:101D000008041093090422C02115310519F0421767
:101D1000530718F49A01BD01EF01DF01F801DBCF91
:101D200021153105F9F0281B390B2430310580F4D9
:101D30008A819B816115710521F0FB019383828368
:101D400004C09093090480930804FE01329644C0B5
:101D5000FE01E20FF31F81939193225031093983E1
:101D600028833AC02091060430910704232B41F4C4
:101D700020910F0130911001309307042093060445
:101D800020910D0130910E012115310541F42DB73F
:101D90003EB74091110150911201241B350BE09187
:101DA0000604F0910704E217F307A0F42E1B3F0B83
:101DB0002817390778F0AC014E5F5F4F24173507BD
:101DC00048F04E0F5F1F5093070440930604819321
:101DD000919302C0E0E0F0E0CF01DF91CF911F913D
:101DE0000F910895CF93DF93009709F481C0FC0110
:101DF000329713821282A0910804B09109041097BF
:101E000081F420813181820F931F2091060430914B
:101E100007042817390751F5F0930704E0930604E7
:101E200067C0ED0120E030E0CE17DF0740F44A81C3
:101E30005B819E0141155105F1F0EA01F5CFD38395
:101E4000C28340815181840F951FC817D90759F467
:101E500088819981840F951F0296918380838A815E
:101E60009B81938382832115310529F4F093090422
:101E7000E09308043DC0E901FB83EA83499159914D
:101E8000C40FD51FEC17FD0761F480819181840F89
:101E9000951F0296E90199838883828193819B83B0
:101EA0008A83E0E0F0E012968D919C911397009761
:101EB00019F0FD01DC01F7CF8D919C9111979D01E7
:101EC0002E5F3F4F820F931F20910604309107042D
:101ED0002817390769F4309729F4109209041092F1
:101EE000080402C013821282B0930704A093060470
:101EF000DF91CF910895A0E0B0E0E1E8FFE00C941D
:101F0000FF0DEC01009721F4CB010E945A0EB4C0E2
:101F1000FC01E60FF71F9C0122503109E217F3077D
:101F200008F4A8C0D9010D911C9111970617170745
:101F3000B0F00530110508F49BC0C801049786175E
:101F4000970708F495C002501109061B170B01935F
:101F500011936D937C93CF010E94F20E89C05B01B7
:101F6000A01AB10A4C01800E911EA0910804B091F4
:101F70000904612C712CE12CF12C109709F446C056
:101F80008D919C911197A815B905B1F56C0142E0AE
:101F9000C40ED11CCA14DB0478F14C018A189B08CA
:101FA000640142E0C40ED11C1296BC9012971396A5
:101FB000AC91B5E0CB16D10440F0B282A3839182FC
:101FC0008082D9016D937C9309C00E5F1F4F800FF3
:101FD000911FF90191838083EB2DFA2FE114F10415
:101FE00031F0D7011396FC93EE93129741C0F09312
:101FF0000904E09308043CC06816790608F43C0123
:102000007D0112960D90BC91A02DB7CF8091060452
:102010009091070488169906E1F466167706C8F4CD
:1020200080910D0190910E01009741F48DB79EB7FC
:102030004091110150911201841B950BE817F9078B
:10204000C8F4F0930704E0930604F90171836083F8
:102050000FC0CB010E945A0E7C01009759F0A801D5
:10206000BE010E945310CE010E94F20EC70104C0AF
:10207000CE0102C080E090E0CDB7DEB7EEE00C9478
:102080001B0E81E090E0F8940C946310FB01DC01DE
:1020900004C08D910190801921F441505040C8F73F
:1020A000881B990B0895FB01DC0102C001900D9281
:1020B00041505040D8F70895FB01DC0101900D928A
:0A20C0000020E1F70895F894FFCF27
:1020CA000000FF06FAD5010000FF00FF0000000A29
:1020DA0004200003000000040000000500000006C0
:1020EA000000000700000008000000090000000AC4
:1020FA0000000002C6F7B30301E0430274C1A30360
:10210A0008764302F1E4730395ED1302F3DCA38E20
:10211A0010DD99000000004B041E04BB00F20316F8
:10212A00040204F3030000000027019000BE0074BB
:10213A0001EF00CD00E10048616C6C6F2120486519
:10214A00742070726F6772616D6D61206973207699
:10215A00616E20737461727421004469646E27741D
:10216A002066696E6420504E35337820626F617242
:10217A0064202300466F756E64206368697020507E
:10218A004E35004669726D77617265207665722EEA
:10219A002000416C6C20626F7264656E207A696AF5
:1021AA006E206765C3AF6E697469616C6973656532
:1021BA0072640052454144455220230074616720ED
:1021CA0049442300416363657373206772616E74C7
:1021DA006564004163636573732064656E69656451
:1021EA0000466F756E6420616E2049534F31343456
:1021FA003433412063617264207769746820005522
:0E220A0049442056616C75653A20000D0A00AB
:00000001FF
